{
	"MyProjects/MultiSig.sol": {
		"MultiSig": {
			"abi": [
				{
					"inputs": [
						{
							"internalType": "address[]",
							"name": "_owners",
							"type": "address[]"
						},
						{
							"internalType": "uint256",
							"name": "_numConfirmationRequired",
							"type": "uint256"
						}
					],
					"stateMutability": "nonpayable",
					"type": "constructor"
				},
				{
					"anonymous": false,
					"inputs": [
						{
							"indexed": false,
							"internalType": "uint256",
							"name": "transactionId",
							"type": "uint256"
						}
					],
					"name": "TransactionConfirmed",
					"type": "event"
				},
				{
					"anonymous": false,
					"inputs": [
						{
							"indexed": false,
							"internalType": "uint256",
							"name": "_transactionsId",
							"type": "uint256"
						}
					],
					"name": "TransactionExecuted",
					"type": "event"
				},
				{
					"anonymous": false,
					"inputs": [
						{
							"indexed": false,
							"internalType": "uint256",
							"name": "transactionId",
							"type": "uint256"
						},
						{
							"indexed": false,
							"internalType": "address",
							"name": "sender",
							"type": "address"
						},
						{
							"indexed": false,
							"internalType": "address",
							"name": "receiver",
							"type": "address"
						},
						{
							"indexed": false,
							"internalType": "uint256",
							"name": "amount",
							"type": "uint256"
						}
					],
					"name": "TransactionSubmitted",
					"type": "event"
				},
				{
					"inputs": [
						{
							"internalType": "uint256",
							"name": "_transactionId",
							"type": "uint256"
						}
					],
					"name": "confirmTransaction",
					"outputs": [],
					"stateMutability": "nonpayable",
					"type": "function"
				},
				{
					"inputs": [
						{
							"internalType": "uint256",
							"name": "_transactionId",
							"type": "uint256"
						}
					],
					"name": "executeTransaction",
					"outputs": [],
					"stateMutability": "payable",
					"type": "function"
				},
				{
					"inputs": [],
					"name": "numConfirmationRequired",
					"outputs": [
						{
							"internalType": "uint256",
							"name": "",
							"type": "uint256"
						}
					],
					"stateMutability": "view",
					"type": "function"
				},
				{
					"inputs": [
						{
							"internalType": "uint256",
							"name": "",
							"type": "uint256"
						}
					],
					"name": "owners",
					"outputs": [
						{
							"internalType": "address",
							"name": "",
							"type": "address"
						}
					],
					"stateMutability": "view",
					"type": "function"
				},
				{
					"inputs": [
						{
							"internalType": "address",
							"name": "_to",
							"type": "address"
						}
					],
					"name": "submitTransaction",
					"outputs": [],
					"stateMutability": "payable",
					"type": "function"
				},
				{
					"inputs": [
						{
							"internalType": "uint256",
							"name": "",
							"type": "uint256"
						}
					],
					"name": "transactions",
					"outputs": [
						{
							"internalType": "address",
							"name": "to",
							"type": "address"
						},
						{
							"internalType": "uint256",
							"name": "value",
							"type": "uint256"
						},
						{
							"internalType": "bool",
							"name": "executed",
							"type": "bool"
						}
					],
					"stateMutability": "view",
					"type": "function"
				}
			],
			"devdoc": {
				"kind": "dev",
				"methods": {},
				"version": 1
			},
			"evm": {
				"assembly": "    /* \"MyProjects/MultiSig.sol\":203:3726  contract MultiSig... */\n  mstore(0x40, 0x80)\n    /* \"MyProjects/MultiSig.sol\":941:1703  constructor(address[] memory _owners, uint _numConfirmationRequired){... */\n  callvalue\n  dup1\n  iszero\n  tag_1\n  jumpi\n  0x00\n  dup1\n  revert\ntag_1:\n  pop\n  mload(0x40)\n  sub(codesize, bytecodeSize)\n  dup1\n  bytecodeSize\n  dup4\n  codecopy\n  dup2\n  dup2\n  add\n  0x40\n  mstore\n  dup2\n  add\n  swap1\n  tag_2\n  swap2\n  swap1\n  tag_3\n  jump\t// in\ntag_2:\n    /* \"MyProjects/MultiSig.sol\":1045:1046  1 */\n  0x01\n    /* \"MyProjects/MultiSig.sol\":1028:1035  _owners */\n  dup3\n    /* \"MyProjects/MultiSig.sol\":1028:1042  _owners.length */\n  mload\n    /* \"MyProjects/MultiSig.sol\":1028:1046  _owners.length > 1 */\n  gt\n    /* \"MyProjects/MultiSig.sol\":1020:1086  require(_owners.length > 1, \"Number of owner must be more than 1\") */\n  tag_6\n  jumpi\n  mload(0x40)\n  0x08c379a000000000000000000000000000000000000000000000000000000000\n  dup2\n  mstore\n  0x04\n  add\n  tag_7\n  swap1\n  tag_8\n  jump\t// in\ntag_7:\n  mload(0x40)\n  dup1\n  swap2\n  sub\n  swap1\n  revert\ntag_6:\n    /* \"MyProjects/MultiSig.sol\":1130:1131  0 */\n  0x00\n    /* \"MyProjects/MultiSig.sol\":1105:1129  _numConfirmationRequired */\n  dup2\n    /* \"MyProjects/MultiSig.sol\":1105:1131  _numConfirmationRequired>0 */\n  gt\n    /* \"MyProjects/MultiSig.sol\":1105:1174  _numConfirmationRequired>0 && numConfirmationRequired<=_owners.length */\n  dup1\n  iszero\n  tag_9\n  jumpi\n  pop\n    /* \"MyProjects/MultiSig.sol\":1160:1167  _owners */\n  dup2\n    /* \"MyProjects/MultiSig.sol\":1160:1174  _owners.length */\n  mload\n    /* \"MyProjects/MultiSig.sol\":1135:1158  numConfirmationRequired */\n  sload(0x01)\n    /* \"MyProjects/MultiSig.sol\":1135:1174  numConfirmationRequired<=_owners.length */\n  gt\n  iszero\n    /* \"MyProjects/MultiSig.sol\":1105:1174  _numConfirmationRequired>0 && numConfirmationRequired<=_owners.length */\ntag_9:\n    /* \"MyProjects/MultiSig.sol\":1097:1243  require(_numConfirmationRequired>0 && numConfirmationRequired<=_owners.length, \"Number of confirmation are not in sinc with the number of owners\") */\n  tag_10\n  jumpi\n  mload(0x40)\n  0x08c379a000000000000000000000000000000000000000000000000000000000\n  dup2\n  mstore\n  0x04\n  add\n  tag_11\n  swap1\n  tag_12\n  jump\t// in\ntag_11:\n  mload(0x40)\n  dup1\n  swap2\n  sub\n  swap1\n  revert\ntag_10:\n    /* \"MyProjects/MultiSig.sol\":1445:1451  uint i */\n  0x00\n    /* \"MyProjects/MultiSig.sol\":1441:1633  for(uint i=0;i<_owners.length;i++){... */\ntag_13:\n    /* \"MyProjects/MultiSig.sol\":1456:1463  _owners */\n  dup3\n    /* \"MyProjects/MultiSig.sol\":1456:1470  _owners.length */\n  mload\n    /* \"MyProjects/MultiSig.sol\":1454:1455  i */\n  dup2\n    /* \"MyProjects/MultiSig.sol\":1454:1470  i<_owners.length */\n  lt\n    /* \"MyProjects/MultiSig.sol\":1441:1633  for(uint i=0;i<_owners.length;i++){... */\n  iszero\n  tag_14\n  jumpi\n    /* \"MyProjects/MultiSig.sol\":1520:1521  0 */\n  0x00\n    /* \"MyProjects/MultiSig.sol\":1498:1522  _owners[i] != address(0) */\n  0xffffffffffffffffffffffffffffffffffffffff\n  and\n    /* \"MyProjects/MultiSig.sol\":1498:1505  _owners */\n  dup4\n    /* \"MyProjects/MultiSig.sol\":1506:1507  i */\n  dup3\n    /* \"MyProjects/MultiSig.sol\":1498:1508  _owners[i] */\n  dup2\n  mload\n  dup2\n  lt\n  tag_16\n  jumpi\n  tag_17\n  tag_18\n  jump\t// in\ntag_17:\ntag_16:\n  0x20\n  mul\n  0x20\n  add\n  add\n  mload\n    /* \"MyProjects/MultiSig.sol\":1498:1522  _owners[i] != address(0) */\n  0xffffffffffffffffffffffffffffffffffffffff\n  and\n  sub\n    /* \"MyProjects/MultiSig.sol\":1490:1548  require(_owners[i] != address(0), \"Invalid Owner address\") */\n  tag_19\n  jumpi\n  mload(0x40)\n  0x08c379a000000000000000000000000000000000000000000000000000000000\n  dup2\n  mstore\n  0x04\n  add\n  tag_20\n  swap1\n  tag_21\n  jump\t// in\ntag_20:\n  mload(0x40)\n  dup1\n  swap2\n  sub\n  swap1\n  revert\ntag_19:\n    /* \"MyProjects/MultiSig.sol\":1597:1603  owners */\n  0x00\n    /* \"MyProjects/MultiSig.sol\":1609:1616  _owners */\n  dup4\n    /* \"MyProjects/MultiSig.sol\":1617:1618  i */\n  dup3\n    /* \"MyProjects/MultiSig.sol\":1609:1619  _owners[i] */\n  dup2\n  mload\n  dup2\n  lt\n  tag_22\n  jumpi\n  tag_23\n  tag_18\n  jump\t// in\ntag_23:\ntag_22:\n  0x20\n  mul\n  0x20\n  add\n  add\n  mload\n    /* \"MyProjects/MultiSig.sol\":1597:1620  owners.push(_owners[i]) */\n  swap1\n  dup1\n  0x01\n  dup2\n  sload\n  add\n  dup1\n  dup3\n  sstore\n  dup1\n  swap2\n  pop\n  pop\n  0x01\n  swap1\n  sub\n  swap1\n  0x00\n  mstore\n  keccak256(0x00, 0x20)\n  add\n  0x00\n  swap1\n  swap2\n  swap1\n  swap2\n  swap1\n  swap2\n  0x0100\n  exp\n  dup2\n  sload\n  dup2\n  0xffffffffffffffffffffffffffffffffffffffff\n  mul\n  not\n  and\n  swap1\n  dup4\n  0xffffffffffffffffffffffffffffffffffffffff\n  and\n  mul\n  or\n  swap1\n  sstore\n  pop\n    /* \"MyProjects/MultiSig.sol\":1471:1474  i++ */\n  dup1\n  dup1\n  0x01\n  add\n  swap2\n  pop\n  pop\n    /* \"MyProjects/MultiSig.sol\":1441:1633  for(uint i=0;i<_owners.length;i++){... */\n  jump(tag_13)\ntag_14:\n  pop\n    /* \"MyProjects/MultiSig.sol\":1671:1695  _numConfirmationRequired */\n  dup1\n    /* \"MyProjects/MultiSig.sol\":1645:1668  numConfirmationRequired */\n  0x01\n    /* \"MyProjects/MultiSig.sol\":1645:1695  numConfirmationRequired = _numConfirmationRequired */\n  dup2\n  swap1\n  sstore\n  pop\n    /* \"MyProjects/MultiSig.sol\":941:1703  constructor(address[] memory _owners, uint _numConfirmationRequired){... */\n  pop\n  pop\n    /* \"MyProjects/MultiSig.sol\":203:3726  contract MultiSig... */\n  jump(tag_25)\n    /* \"#utility.yul\":7:82   */\ntag_26:\n    /* \"#utility.yul\":40:46   */\n  0x00\n    /* \"#utility.yul\":73:75   */\n  0x40\n    /* \"#utility.yul\":67:76   */\n  mload\n    /* \"#utility.yul\":57:76   */\n  swap1\n  pop\n    /* \"#utility.yul\":7:82   */\n  swap1\n  jump\t// out\n    /* \"#utility.yul\":88:205   */\ntag_27:\n    /* \"#utility.yul\":197:198   */\n  0x00\n    /* \"#utility.yul\":194:195   */\n  dup1\n    /* \"#utility.yul\":187:199   */\n  revert\n    /* \"#utility.yul\":211:328   */\ntag_28:\n    /* \"#utility.yul\":320:321   */\n  0x00\n    /* \"#utility.yul\":317:318   */\n  dup1\n    /* \"#utility.yul\":310:322   */\n  revert\n    /* \"#utility.yul\":334:451   */\ntag_29:\n    /* \"#utility.yul\":443:444   */\n  0x00\n    /* \"#utility.yul\":440:441   */\n  dup1\n    /* \"#utility.yul\":433:445   */\n  revert\n    /* \"#utility.yul\":457:559   */\ntag_30:\n    /* \"#utility.yul\":498:504   */\n  0x00\n    /* \"#utility.yul\":549:551   */\n  0x1f\n    /* \"#utility.yul\":545:552   */\n  not\n    /* \"#utility.yul\":540:542   */\n  0x1f\n    /* \"#utility.yul\":533:538   */\n  dup4\n    /* \"#utility.yul\":529:543   */\n  add\n    /* \"#utility.yul\":525:553   */\n  and\n    /* \"#utility.yul\":515:553   */\n  swap1\n  pop\n    /* \"#utility.yul\":457:559   */\n  swap2\n  swap1\n  pop\n  jump\t// out\n    /* \"#utility.yul\":565:745   */\ntag_31:\n    /* \"#utility.yul\":613:690   */\n  0x4e487b7100000000000000000000000000000000000000000000000000000000\n    /* \"#utility.yul\":610:611   */\n  0x00\n    /* \"#utility.yul\":603:691   */\n  mstore\n    /* \"#utility.yul\":710:714   */\n  0x41\n    /* \"#utility.yul\":707:708   */\n  0x04\n    /* \"#utility.yul\":700:715   */\n  mstore\n    /* \"#utility.yul\":734:738   */\n  0x24\n    /* \"#utility.yul\":731:732   */\n  0x00\n    /* \"#utility.yul\":724:739   */\n  revert\n    /* \"#utility.yul\":751:1032   */\ntag_32:\n    /* \"#utility.yul\":834:861   */\n  tag_60\n    /* \"#utility.yul\":856:860   */\n  dup3\n    /* \"#utility.yul\":834:861   */\n  tag_30\n  jump\t// in\ntag_60:\n    /* \"#utility.yul\":826:832   */\n  dup2\n    /* \"#utility.yul\":822:862   */\n  add\n    /* \"#utility.yul\":964:970   */\n  dup2\n    /* \"#utility.yul\":952:962   */\n  dup2\n    /* \"#utility.yul\":949:971   */\n  lt\n    /* \"#utility.yul\":928:946   */\n  0xffffffffffffffff\n    /* \"#utility.yul\":916:926   */\n  dup3\n    /* \"#utility.yul\":913:947   */\n  gt\n    /* \"#utility.yul\":910:972   */\n  or\n    /* \"#utility.yul\":907:995   */\n  iszero\n  tag_61\n  jumpi\n    /* \"#utility.yul\":975:993   */\n  tag_62\n  tag_31\n  jump\t// in\ntag_62:\n    /* \"#utility.yul\":907:995   */\ntag_61:\n    /* \"#utility.yul\":1015:1025   */\n  dup1\n    /* \"#utility.yul\":1011:1013   */\n  0x40\n    /* \"#utility.yul\":1004:1026   */\n  mstore\n    /* \"#utility.yul\":794:1032   */\n  pop\n    /* \"#utility.yul\":751:1032   */\n  pop\n  pop\n  jump\t// out\n    /* \"#utility.yul\":1038:1167   */\ntag_33:\n    /* \"#utility.yul\":1072:1078   */\n  0x00\n    /* \"#utility.yul\":1099:1119   */\n  tag_64\n  tag_26\n  jump\t// in\ntag_64:\n    /* \"#utility.yul\":1089:1119   */\n  swap1\n  pop\n    /* \"#utility.yul\":1128:1161   */\n  tag_65\n    /* \"#utility.yul\":1156:1160   */\n  dup3\n    /* \"#utility.yul\":1148:1154   */\n  dup3\n    /* \"#utility.yul\":1128:1161   */\n  tag_32\n  jump\t// in\ntag_65:\n    /* \"#utility.yul\":1038:1167   */\n  swap2\n  swap1\n  pop\n  jump\t// out\n    /* \"#utility.yul\":1173:1484   */\ntag_34:\n    /* \"#utility.yul\":1250:1254   */\n  0x00\n    /* \"#utility.yul\":1340:1358   */\n  0xffffffffffffffff\n    /* \"#utility.yul\":1332:1338   */\n  dup3\n    /* \"#utility.yul\":1329:1359   */\n  gt\n    /* \"#utility.yul\":1326:1382   */\n  iszero\n  tag_67\n  jumpi\n    /* \"#utility.yul\":1362:1380   */\n  tag_68\n  tag_31\n  jump\t// in\ntag_68:\n    /* \"#utility.yul\":1326:1382   */\ntag_67:\n    /* \"#utility.yul\":1412:1416   */\n  0x20\n    /* \"#utility.yul\":1404:1410   */\n  dup3\n    /* \"#utility.yul\":1400:1417   */\n  mul\n    /* \"#utility.yul\":1392:1417   */\n  swap1\n  pop\n    /* \"#utility.yul\":1472:1476   */\n  0x20\n    /* \"#utility.yul\":1466:1470   */\n  dup2\n    /* \"#utility.yul\":1462:1477   */\n  add\n    /* \"#utility.yul\":1454:1477   */\n  swap1\n  pop\n    /* \"#utility.yul\":1173:1484   */\n  swap2\n  swap1\n  pop\n  jump\t// out\n    /* \"#utility.yul\":1490:1607   */\ntag_35:\n    /* \"#utility.yul\":1599:1600   */\n  0x00\n    /* \"#utility.yul\":1596:1597   */\n  dup1\n    /* \"#utility.yul\":1589:1601   */\n  revert\n    /* \"#utility.yul\":1613:1739   */\ntag_36:\n    /* \"#utility.yul\":1650:1657   */\n  0x00\n    /* \"#utility.yul\":1690:1732   */\n  0xffffffffffffffffffffffffffffffffffffffff\n    /* \"#utility.yul\":1683:1688   */\n  dup3\n    /* \"#utility.yul\":1679:1733   */\n  and\n    /* \"#utility.yul\":1668:1733   */\n  swap1\n  pop\n    /* \"#utility.yul\":1613:1739   */\n  swap2\n  swap1\n  pop\n  jump\t// out\n    /* \"#utility.yul\":1745:1841   */\ntag_37:\n    /* \"#utility.yul\":1782:1789   */\n  0x00\n    /* \"#utility.yul\":1811:1835   */\n  tag_72\n    /* \"#utility.yul\":1829:1834   */\n  dup3\n    /* \"#utility.yul\":1811:1835   */\n  tag_36\n  jump\t// in\ntag_72:\n    /* \"#utility.yul\":1800:1835   */\n  swap1\n  pop\n    /* \"#utility.yul\":1745:1841   */\n  swap2\n  swap1\n  pop\n  jump\t// out\n    /* \"#utility.yul\":1847:1969   */\ntag_38:\n    /* \"#utility.yul\":1920:1944   */\n  tag_74\n    /* \"#utility.yul\":1938:1943   */\n  dup2\n    /* \"#utility.yul\":1920:1944   */\n  tag_37\n  jump\t// in\ntag_74:\n    /* \"#utility.yul\":1913:1918   */\n  dup2\n    /* \"#utility.yul\":1910:1945   */\n  eq\n    /* \"#utility.yul\":1900:1963   */\n  tag_75\n  jumpi\n    /* \"#utility.yul\":1959:1960   */\n  0x00\n    /* \"#utility.yul\":1956:1957   */\n  dup1\n    /* \"#utility.yul\":1949:1961   */\n  revert\n    /* \"#utility.yul\":1900:1963   */\ntag_75:\n    /* \"#utility.yul\":1847:1969   */\n  pop\n  jump\t// out\n    /* \"#utility.yul\":1975:2118   */\ntag_39:\n    /* \"#utility.yul\":2032:2037   */\n  0x00\n    /* \"#utility.yul\":2063:2069   */\n  dup2\n    /* \"#utility.yul\":2057:2070   */\n  mload\n    /* \"#utility.yul\":2048:2070   */\n  swap1\n  pop\n    /* \"#utility.yul\":2079:2112   */\n  tag_77\n    /* \"#utility.yul\":2106:2111   */\n  dup2\n    /* \"#utility.yul\":2079:2112   */\n  tag_38\n  jump\t// in\ntag_77:\n    /* \"#utility.yul\":1975:2118   */\n  swap3\n  swap2\n  pop\n  pop\n  jump\t// out\n    /* \"#utility.yul\":2141:2873   */\ntag_40:\n    /* \"#utility.yul\":2248:2253   */\n  0x00\n    /* \"#utility.yul\":2273:2354   */\n  tag_79\n    /* \"#utility.yul\":2289:2353   */\n  tag_80\n    /* \"#utility.yul\":2346:2352   */\n  dup5\n    /* \"#utility.yul\":2289:2353   */\n  tag_34\n  jump\t// in\ntag_80:\n    /* \"#utility.yul\":2273:2354   */\n  tag_33\n  jump\t// in\ntag_79:\n    /* \"#utility.yul\":2264:2354   */\n  swap1\n  pop\n    /* \"#utility.yul\":2374:2379   */\n  dup1\n    /* \"#utility.yul\":2403:2409   */\n  dup4\n    /* \"#utility.yul\":2396:2401   */\n  dup3\n    /* \"#utility.yul\":2389:2410   */\n  mstore\n    /* \"#utility.yul\":2437:2441   */\n  0x20\n    /* \"#utility.yul\":2430:2435   */\n  dup3\n    /* \"#utility.yul\":2426:2442   */\n  add\n    /* \"#utility.yul\":2419:2442   */\n  swap1\n  pop\n    /* \"#utility.yul\":2490:2494   */\n  0x20\n    /* \"#utility.yul\":2482:2488   */\n  dup5\n    /* \"#utility.yul\":2478:2495   */\n  mul\n    /* \"#utility.yul\":2470:2476   */\n  dup4\n    /* \"#utility.yul\":2466:2496   */\n  add\n    /* \"#utility.yul\":2519:2522   */\n  dup6\n    /* \"#utility.yul\":2511:2517   */\n  dup2\n    /* \"#utility.yul\":2508:2523   */\n  gt\n    /* \"#utility.yul\":2505:2627   */\n  iszero\n  tag_81\n  jumpi\n    /* \"#utility.yul\":2538:2617   */\n  tag_82\n  tag_35\n  jump\t// in\ntag_82:\n    /* \"#utility.yul\":2505:2627   */\ntag_81:\n    /* \"#utility.yul\":2653:2659   */\n  dup4\n    /* \"#utility.yul\":2636:2867   */\ntag_83:\n    /* \"#utility.yul\":2670:2676   */\n  dup2\n    /* \"#utility.yul\":2665:2668   */\n  dup2\n    /* \"#utility.yul\":2662:2677   */\n  lt\n    /* \"#utility.yul\":2636:2867   */\n  iszero\n  tag_85\n  jumpi\n    /* \"#utility.yul\":2745:2748   */\n  dup1\n    /* \"#utility.yul\":2774:2822   */\n  tag_86\n    /* \"#utility.yul\":2818:2821   */\n  dup9\n    /* \"#utility.yul\":2806:2816   */\n  dup3\n    /* \"#utility.yul\":2774:2822   */\n  tag_39\n  jump\t// in\ntag_86:\n    /* \"#utility.yul\":2769:2772   */\n  dup5\n    /* \"#utility.yul\":2762:2823   */\n  mstore\n    /* \"#utility.yul\":2852:2856   */\n  0x20\n    /* \"#utility.yul\":2847:2850   */\n  dup5\n    /* \"#utility.yul\":2843:2857   */\n  add\n    /* \"#utility.yul\":2836:2857   */\n  swap4\n  pop\n    /* \"#utility.yul\":2712:2867   */\n  pop\n    /* \"#utility.yul\":2696:2700   */\n  0x20\n    /* \"#utility.yul\":2691:2694   */\n  dup2\n    /* \"#utility.yul\":2687:2701   */\n  add\n    /* \"#utility.yul\":2680:2701   */\n  swap1\n  pop\n    /* \"#utility.yul\":2636:2867   */\n  jump(tag_83)\ntag_85:\n    /* \"#utility.yul\":2640:2661   */\n  pop\n    /* \"#utility.yul\":2254:2873   */\n  pop\n  pop\n    /* \"#utility.yul\":2141:2873   */\n  swap4\n  swap3\n  pop\n  pop\n  pop\n  jump\t// out\n    /* \"#utility.yul\":2896:3281   */\ntag_41:\n    /* \"#utility.yul\":2978:2983   */\n  0x00\n    /* \"#utility.yul\":3027:3030   */\n  dup3\n    /* \"#utility.yul\":3020:3024   */\n  0x1f\n    /* \"#utility.yul\":3012:3018   */\n  dup4\n    /* \"#utility.yul\":3008:3025   */\n  add\n    /* \"#utility.yul\":3004:3031   */\n  slt\n    /* \"#utility.yul\":2994:3116   */\n  tag_88\n  jumpi\n    /* \"#utility.yul\":3035:3114   */\n  tag_89\n  tag_29\n  jump\t// in\ntag_89:\n    /* \"#utility.yul\":2994:3116   */\ntag_88:\n    /* \"#utility.yul\":3145:3151   */\n  dup2\n    /* \"#utility.yul\":3139:3152   */\n  mload\n    /* \"#utility.yul\":3170:3275   */\n  tag_90\n    /* \"#utility.yul\":3271:3274   */\n  dup5\n    /* \"#utility.yul\":3263:3269   */\n  dup3\n    /* \"#utility.yul\":3256:3260   */\n  0x20\n    /* \"#utility.yul\":3248:3254   */\n  dup7\n    /* \"#utility.yul\":3244:3261   */\n  add\n    /* \"#utility.yul\":3170:3275   */\n  tag_40\n  jump\t// in\ntag_90:\n    /* \"#utility.yul\":3161:3275   */\n  swap2\n  pop\n    /* \"#utility.yul\":2984:3281   */\n  pop\n    /* \"#utility.yul\":2896:3281   */\n  swap3\n  swap2\n  pop\n  pop\n  jump\t// out\n    /* \"#utility.yul\":3287:3364   */\ntag_42:\n    /* \"#utility.yul\":3324:3331   */\n  0x00\n    /* \"#utility.yul\":3353:3358   */\n  dup2\n    /* \"#utility.yul\":3342:3358   */\n  swap1\n  pop\n    /* \"#utility.yul\":3287:3364   */\n  swap2\n  swap1\n  pop\n  jump\t// out\n    /* \"#utility.yul\":3370:3492   */\ntag_43:\n    /* \"#utility.yul\":3443:3467   */\n  tag_93\n    /* \"#utility.yul\":3461:3466   */\n  dup2\n    /* \"#utility.yul\":3443:3467   */\n  tag_42\n  jump\t// in\ntag_93:\n    /* \"#utility.yul\":3436:3441   */\n  dup2\n    /* \"#utility.yul\":3433:3468   */\n  eq\n    /* \"#utility.yul\":3423:3486   */\n  tag_94\n  jumpi\n    /* \"#utility.yul\":3482:3483   */\n  0x00\n    /* \"#utility.yul\":3479:3480   */\n  dup1\n    /* \"#utility.yul\":3472:3484   */\n  revert\n    /* \"#utility.yul\":3423:3486   */\ntag_94:\n    /* \"#utility.yul\":3370:3492   */\n  pop\n  jump\t// out\n    /* \"#utility.yul\":3498:3641   */\ntag_44:\n    /* \"#utility.yul\":3555:3560   */\n  0x00\n    /* \"#utility.yul\":3586:3592   */\n  dup2\n    /* \"#utility.yul\":3580:3593   */\n  mload\n    /* \"#utility.yul\":3571:3593   */\n  swap1\n  pop\n    /* \"#utility.yul\":3602:3635   */\n  tag_96\n    /* \"#utility.yul\":3629:3634   */\n  dup2\n    /* \"#utility.yul\":3602:3635   */\n  tag_43\n  jump\t// in\ntag_96:\n    /* \"#utility.yul\":3498:3641   */\n  swap3\n  swap2\n  pop\n  pop\n  jump\t// out\n    /* \"#utility.yul\":3647:4357   */\ntag_3:\n    /* \"#utility.yul\":3751:3757   */\n  0x00\n    /* \"#utility.yul\":3759:3765   */\n  dup1\n    /* \"#utility.yul\":3808:3810   */\n  0x40\n    /* \"#utility.yul\":3796:3805   */\n  dup4\n    /* \"#utility.yul\":3787:3794   */\n  dup6\n    /* \"#utility.yul\":3783:3806   */\n  sub\n    /* \"#utility.yul\":3779:3811   */\n  slt\n    /* \"#utility.yul\":3776:3895   */\n  iszero\n  tag_98\n  jumpi\n    /* \"#utility.yul\":3814:3893   */\n  tag_99\n  tag_27\n  jump\t// in\ntag_99:\n    /* \"#utility.yul\":3776:3895   */\ntag_98:\n    /* \"#utility.yul\":3955:3956   */\n  0x00\n    /* \"#utility.yul\":3944:3953   */\n  dup4\n    /* \"#utility.yul\":3940:3957   */\n  add\n    /* \"#utility.yul\":3934:3958   */\n  mload\n    /* \"#utility.yul\":3985:4003   */\n  0xffffffffffffffff\n    /* \"#utility.yul\":3977:3983   */\n  dup2\n    /* \"#utility.yul\":3974:4004   */\n  gt\n    /* \"#utility.yul\":3971:4088   */\n  iszero\n  tag_100\n  jumpi\n    /* \"#utility.yul\":4007:4086   */\n  tag_101\n  tag_28\n  jump\t// in\ntag_101:\n    /* \"#utility.yul\":3971:4088   */\ntag_100:\n    /* \"#utility.yul\":4112:4201   */\n  tag_102\n    /* \"#utility.yul\":4193:4200   */\n  dup6\n    /* \"#utility.yul\":4184:4190   */\n  dup3\n    /* \"#utility.yul\":4173:4182   */\n  dup7\n    /* \"#utility.yul\":4169:4191   */\n  add\n    /* \"#utility.yul\":4112:4201   */\n  tag_41\n  jump\t// in\ntag_102:\n    /* \"#utility.yul\":4102:4201   */\n  swap3\n  pop\n    /* \"#utility.yul\":3905:4211   */\n  pop\n    /* \"#utility.yul\":4250:4252   */\n  0x20\n    /* \"#utility.yul\":4276:4340   */\n  tag_103\n    /* \"#utility.yul\":4332:4339   */\n  dup6\n    /* \"#utility.yul\":4323:4329   */\n  dup3\n    /* \"#utility.yul\":4312:4321   */\n  dup7\n    /* \"#utility.yul\":4308:4330   */\n  add\n    /* \"#utility.yul\":4276:4340   */\n  tag_44\n  jump\t// in\ntag_103:\n    /* \"#utility.yul\":4266:4340   */\n  swap2\n  pop\n    /* \"#utility.yul\":4221:4350   */\n  pop\n    /* \"#utility.yul\":3647:4357   */\n  swap3\n  pop\n  swap3\n  swap1\n  pop\n  jump\t// out\n    /* \"#utility.yul\":4363:4532   */\ntag_45:\n    /* \"#utility.yul\":4447:4458   */\n  0x00\n    /* \"#utility.yul\":4481:4487   */\n  dup3\n    /* \"#utility.yul\":4476:4479   */\n  dup3\n    /* \"#utility.yul\":4469:4488   */\n  mstore\n    /* \"#utility.yul\":4521:4525   */\n  0x20\n    /* \"#utility.yul\":4516:4519   */\n  dup3\n    /* \"#utility.yul\":4512:4526   */\n  add\n    /* \"#utility.yul\":4497:4526   */\n  swap1\n  pop\n    /* \"#utility.yul\":4363:4532   */\n  swap3\n  swap2\n  pop\n  pop\n  jump\t// out\n    /* \"#utility.yul\":4538:4760   */\ntag_46:\n    /* \"#utility.yul\":4678:4712   */\n  0x4e756d626572206f66206f776e6572206d757374206265206d6f726520746861\n    /* \"#utility.yul\":4674:4675   */\n  0x00\n    /* \"#utility.yul\":4666:4672   */\n  dup3\n    /* \"#utility.yul\":4662:4676   */\n  add\n    /* \"#utility.yul\":4655:4713   */\n  mstore\n    /* \"#utility.yul\":4747:4752   */\n  0x6e20310000000000000000000000000000000000000000000000000000000000\n    /* \"#utility.yul\":4742:4744   */\n  0x20\n    /* \"#utility.yul\":4734:4740   */\n  dup3\n    /* \"#utility.yul\":4730:4745   */\n  add\n    /* \"#utility.yul\":4723:4753   */\n  mstore\n    /* \"#utility.yul\":4538:4760   */\n  pop\n  jump\t// out\n    /* \"#utility.yul\":4766:5132   */\ntag_47:\n    /* \"#utility.yul\":4908:4911   */\n  0x00\n    /* \"#utility.yul\":4929:4996   */\n  tag_107\n    /* \"#utility.yul\":4993:4995   */\n  0x23\n    /* \"#utility.yul\":4988:4991   */\n  dup4\n    /* \"#utility.yul\":4929:4996   */\n  tag_45\n  jump\t// in\ntag_107:\n    /* \"#utility.yul\":4922:4996   */\n  swap2\n  pop\n    /* \"#utility.yul\":5005:5098   */\n  tag_108\n    /* \"#utility.yul\":5094:5097   */\n  dup3\n    /* \"#utility.yul\":5005:5098   */\n  tag_46\n  jump\t// in\ntag_108:\n    /* \"#utility.yul\":5123:5125   */\n  0x40\n    /* \"#utility.yul\":5118:5121   */\n  dup3\n    /* \"#utility.yul\":5114:5126   */\n  add\n    /* \"#utility.yul\":5107:5126   */\n  swap1\n  pop\n    /* \"#utility.yul\":4766:5132   */\n  swap2\n  swap1\n  pop\n  jump\t// out\n    /* \"#utility.yul\":5138:5557   */\ntag_8:\n    /* \"#utility.yul\":5304:5308   */\n  0x00\n    /* \"#utility.yul\":5342:5344   */\n  0x20\n    /* \"#utility.yul\":5331:5340   */\n  dup3\n    /* \"#utility.yul\":5327:5345   */\n  add\n    /* \"#utility.yul\":5319:5345   */\n  swap1\n  pop\n    /* \"#utility.yul\":5391:5400   */\n  dup2\n    /* \"#utility.yul\":5385:5389   */\n  dup2\n    /* \"#utility.yul\":5381:5401   */\n  sub\n    /* \"#utility.yul\":5377:5378   */\n  0x00\n    /* \"#utility.yul\":5366:5375   */\n  dup4\n    /* \"#utility.yul\":5362:5379   */\n  add\n    /* \"#utility.yul\":5355:5402   */\n  mstore\n    /* \"#utility.yul\":5419:5550   */\n  tag_110\n    /* \"#utility.yul\":5545:5549   */\n  dup2\n    /* \"#utility.yul\":5419:5550   */\n  tag_47\n  jump\t// in\ntag_110:\n    /* \"#utility.yul\":5411:5550   */\n  swap1\n  pop\n    /* \"#utility.yul\":5138:5557   */\n  swap2\n  swap1\n  pop\n  jump\t// out\n    /* \"#utility.yul\":5563:5814   */\ntag_48:\n    /* \"#utility.yul\":5703:5737   */\n  0x4e756d626572206f6620636f6e6669726d6174696f6e20617265206e6f742069\n    /* \"#utility.yul\":5699:5700   */\n  0x00\n    /* \"#utility.yul\":5691:5697   */\n  dup3\n    /* \"#utility.yul\":5687:5701   */\n  add\n    /* \"#utility.yul\":5680:5738   */\n  mstore\n    /* \"#utility.yul\":5772:5806   */\n  0x6e2073696e63207769746820746865206e756d626572206f66206f776e657273\n    /* \"#utility.yul\":5767:5769   */\n  0x20\n    /* \"#utility.yul\":5759:5765   */\n  dup3\n    /* \"#utility.yul\":5755:5770   */\n  add\n    /* \"#utility.yul\":5748:5807   */\n  mstore\n    /* \"#utility.yul\":5563:5814   */\n  pop\n  jump\t// out\n    /* \"#utility.yul\":5820:6186   */\ntag_49:\n    /* \"#utility.yul\":5962:5965   */\n  0x00\n    /* \"#utility.yul\":5983:6050   */\n  tag_113\n    /* \"#utility.yul\":6047:6049   */\n  0x40\n    /* \"#utility.yul\":6042:6045   */\n  dup4\n    /* \"#utility.yul\":5983:6050   */\n  tag_45\n  jump\t// in\ntag_113:\n    /* \"#utility.yul\":5976:6050   */\n  swap2\n  pop\n    /* \"#utility.yul\":6059:6152   */\n  tag_114\n    /* \"#utility.yul\":6148:6151   */\n  dup3\n    /* \"#utility.yul\":6059:6152   */\n  tag_48\n  jump\t// in\ntag_114:\n    /* \"#utility.yul\":6177:6179   */\n  0x40\n    /* \"#utility.yul\":6172:6175   */\n  dup3\n    /* \"#utility.yul\":6168:6180   */\n  add\n    /* \"#utility.yul\":6161:6180   */\n  swap1\n  pop\n    /* \"#utility.yul\":5820:6186   */\n  swap2\n  swap1\n  pop\n  jump\t// out\n    /* \"#utility.yul\":6192:6611   */\ntag_12:\n    /* \"#utility.yul\":6358:6362   */\n  0x00\n    /* \"#utility.yul\":6396:6398   */\n  0x20\n    /* \"#utility.yul\":6385:6394   */\n  dup3\n    /* \"#utility.yul\":6381:6399   */\n  add\n    /* \"#utility.yul\":6373:6399   */\n  swap1\n  pop\n    /* \"#utility.yul\":6445:6454   */\n  dup2\n    /* \"#utility.yul\":6439:6443   */\n  dup2\n    /* \"#utility.yul\":6435:6455   */\n  sub\n    /* \"#utility.yul\":6431:6432   */\n  0x00\n    /* \"#utility.yul\":6420:6429   */\n  dup4\n    /* \"#utility.yul\":6416:6433   */\n  add\n    /* \"#utility.yul\":6409:6456   */\n  mstore\n    /* \"#utility.yul\":6473:6604   */\n  tag_116\n    /* \"#utility.yul\":6599:6603   */\n  dup2\n    /* \"#utility.yul\":6473:6604   */\n  tag_49\n  jump\t// in\ntag_116:\n    /* \"#utility.yul\":6465:6604   */\n  swap1\n  pop\n    /* \"#utility.yul\":6192:6611   */\n  swap2\n  swap1\n  pop\n  jump\t// out\n    /* \"#utility.yul\":6617:6797   */\ntag_18:\n    /* \"#utility.yul\":6665:6742   */\n  0x4e487b7100000000000000000000000000000000000000000000000000000000\n    /* \"#utility.yul\":6662:6663   */\n  0x00\n    /* \"#utility.yul\":6655:6743   */\n  mstore\n    /* \"#utility.yul\":6762:6766   */\n  0x32\n    /* \"#utility.yul\":6759:6760   */\n  0x04\n    /* \"#utility.yul\":6752:6767   */\n  mstore\n    /* \"#utility.yul\":6786:6790   */\n  0x24\n    /* \"#utility.yul\":6783:6784   */\n  0x00\n    /* \"#utility.yul\":6776:6791   */\n  revert\n    /* \"#utility.yul\":6803:6974   */\ntag_50:\n    /* \"#utility.yul\":6943:6966   */\n  0x496e76616c6964204f776e657220616464726573730000000000000000000000\n    /* \"#utility.yul\":6939:6940   */\n  0x00\n    /* \"#utility.yul\":6931:6937   */\n  dup3\n    /* \"#utility.yul\":6927:6941   */\n  add\n    /* \"#utility.yul\":6920:6967   */\n  mstore\n    /* \"#utility.yul\":6803:6974   */\n  pop\n  jump\t// out\n    /* \"#utility.yul\":6980:7346   */\ntag_51:\n    /* \"#utility.yul\":7122:7125   */\n  0x00\n    /* \"#utility.yul\":7143:7210   */\n  tag_120\n    /* \"#utility.yul\":7207:7209   */\n  0x15\n    /* \"#utility.yul\":7202:7205   */\n  dup4\n    /* \"#utility.yul\":7143:7210   */\n  tag_45\n  jump\t// in\ntag_120:\n    /* \"#utility.yul\":7136:7210   */\n  swap2\n  pop\n    /* \"#utility.yul\":7219:7312   */\n  tag_121\n    /* \"#utility.yul\":7308:7311   */\n  dup3\n    /* \"#utility.yul\":7219:7312   */\n  tag_50\n  jump\t// in\ntag_121:\n    /* \"#utility.yul\":7337:7339   */\n  0x20\n    /* \"#utility.yul\":7332:7335   */\n  dup3\n    /* \"#utility.yul\":7328:7340   */\n  add\n    /* \"#utility.yul\":7321:7340   */\n  swap1\n  pop\n    /* \"#utility.yul\":6980:7346   */\n  swap2\n  swap1\n  pop\n  jump\t// out\n    /* \"#utility.yul\":7352:7771   */\ntag_21:\n    /* \"#utility.yul\":7518:7522   */\n  0x00\n    /* \"#utility.yul\":7556:7558   */\n  0x20\n    /* \"#utility.yul\":7545:7554   */\n  dup3\n    /* \"#utility.yul\":7541:7559   */\n  add\n    /* \"#utility.yul\":7533:7559   */\n  swap1\n  pop\n    /* \"#utility.yul\":7605:7614   */\n  dup2\n    /* \"#utility.yul\":7599:7603   */\n  dup2\n    /* \"#utility.yul\":7595:7615   */\n  sub\n    /* \"#utility.yul\":7591:7592   */\n  0x00\n    /* \"#utility.yul\":7580:7589   */\n  dup4\n    /* \"#utility.yul\":7576:7593   */\n  add\n    /* \"#utility.yul\":7569:7616   */\n  mstore\n    /* \"#utility.yul\":7633:7764   */\n  tag_123\n    /* \"#utility.yul\":7759:7763   */\n  dup2\n    /* \"#utility.yul\":7633:7764   */\n  tag_51\n  jump\t// in\ntag_123:\n    /* \"#utility.yul\":7625:7764   */\n  swap1\n  pop\n    /* \"#utility.yul\":7352:7771   */\n  swap2\n  swap1\n  pop\n  jump\t// out\n    /* \"MyProjects/MultiSig.sol\":203:3726  contract MultiSig... */\ntag_25:\n  dataSize(sub_0)\n  dup1\n  dataOffset(sub_0)\n  0x00\n  codecopy\n  0x00\n  return\nstop\n\nsub_0: assembly {\n        /* \"MyProjects/MultiSig.sol\":203:3726  contract MultiSig... */\n      mstore(0x40, 0x80)\n      jumpi(tag_1, lt(calldatasize, 0x04))\n      shr(0xe0, calldataload(0x00))\n      dup1\n      0x025e7c27\n      eq\n      tag_2\n      jumpi\n      dup1\n      0x66d651db\n      eq\n      tag_3\n      jumpi\n      dup1\n      0x9ace38c2\n      eq\n      tag_4\n      jumpi\n      dup1\n      0x9b6a34d3\n      eq\n      tag_5\n      jumpi\n      dup1\n      0xc01a8c84\n      eq\n      tag_6\n      jumpi\n      dup1\n      0xee22610b\n      eq\n      tag_7\n      jumpi\n    tag_1:\n      0x00\n      dup1\n      revert\n        /* \"MyProjects/MultiSig.sol\":229:252  address[] public owners */\n    tag_2:\n      callvalue\n      dup1\n      iszero\n      tag_8\n      jumpi\n      0x00\n      dup1\n      revert\n    tag_8:\n      pop\n      tag_9\n      0x04\n      dup1\n      calldatasize\n      sub\n      dup2\n      add\n      swap1\n      tag_10\n      swap2\n      swap1\n      tag_11\n      jump\t// in\n    tag_10:\n      tag_12\n      jump\t// in\n    tag_9:\n      mload(0x40)\n      tag_13\n      swap2\n      swap1\n      tag_14\n      jump\t// in\n    tag_13:\n      mload(0x40)\n      dup1\n      swap2\n      sub\n      swap1\n      return\n        /* \"MyProjects/MultiSig.sol\":1711:2128  function submitTransaction(address _to) public payable {... */\n    tag_3:\n      tag_15\n      0x04\n      dup1\n      calldatasize\n      sub\n      dup2\n      add\n      swap1\n      tag_16\n      swap2\n      swap1\n      tag_17\n      jump\t// in\n    tag_16:\n      tag_18\n      jump\t// in\n    tag_15:\n      stop\n        /* \"MyProjects/MultiSig.sol\":631:664  Transaction[] public transactions */\n    tag_4:\n      callvalue\n      dup1\n      iszero\n      tag_19\n      jumpi\n      0x00\n      dup1\n      revert\n    tag_19:\n      pop\n      tag_20\n      0x04\n      dup1\n      calldatasize\n      sub\n      dup2\n      add\n      swap1\n      tag_21\n      swap2\n      swap1\n      tag_11\n      jump\t// in\n    tag_21:\n      tag_22\n      jump\t// in\n    tag_20:\n      mload(0x40)\n      tag_23\n      swap4\n      swap3\n      swap2\n      swap1\n      tag_24\n      jump\t// in\n    tag_23:\n      mload(0x40)\n      dup1\n      swap2\n      sub\n      swap1\n      return\n        /* \"MyProjects/MultiSig.sol\":303:338  uint public numConfirmationRequired */\n    tag_5:\n      callvalue\n      dup1\n      iszero\n      tag_25\n      jumpi\n      0x00\n      dup1\n      revert\n    tag_25:\n      pop\n      tag_26\n      tag_27\n      jump\t// in\n    tag_26:\n      mload(0x40)\n      tag_28\n      swap2\n      swap1\n      tag_29\n      jump\t// in\n    tag_28:\n      mload(0x40)\n      dup1\n      swap2\n      sub\n      swap1\n      return\n        /* \"MyProjects/MultiSig.sol\":2136:2618  function confirmTransaction(uint _transactionId) public {... */\n    tag_6:\n      callvalue\n      dup1\n      iszero\n      tag_30\n      jumpi\n      0x00\n      dup1\n      revert\n    tag_30:\n      pop\n      tag_31\n      0x04\n      dup1\n      calldatasize\n      sub\n      dup2\n      add\n      swap1\n      tag_32\n      swap2\n      swap1\n      tag_11\n      jump\t// in\n    tag_32:\n      tag_33\n      jump\t// in\n    tag_31:\n      stop\n        /* \"MyProjects/MultiSig.sol\":2626:3265  function executeTransaction(uint _transactionId) public payable {... */\n    tag_7:\n      tag_34\n      0x04\n      dup1\n      calldatasize\n      sub\n      dup2\n      add\n      swap1\n      tag_35\n      swap2\n      swap1\n      tag_11\n      jump\t// in\n    tag_35:\n      tag_36\n      jump\t// in\n    tag_34:\n      stop\n        /* \"MyProjects/MultiSig.sol\":229:252  address[] public owners */\n    tag_12:\n      0x00\n      dup2\n      dup2\n      sload\n      dup2\n      lt\n      tag_37\n      jumpi\n      0x00\n      dup1\n      revert\n    tag_37:\n      swap1\n      0x00\n      mstore\n      keccak256(0x00, 0x20)\n      add\n      0x00\n      swap2\n      pop\n      sload\n      swap1\n      0x0100\n      exp\n      swap1\n      div\n      0xffffffffffffffffffffffffffffffffffffffff\n      and\n      dup2\n      jump\t// out\n        /* \"MyProjects/MultiSig.sol\":1711:2128  function submitTransaction(address _to) public payable {... */\n    tag_18:\n        /* \"MyProjects/MultiSig.sol\":1800:1801  0 */\n      0x00\n        /* \"MyProjects/MultiSig.sol\":1785:1802  _to != address(0) */\n      0xffffffffffffffffffffffffffffffffffffffff\n      and\n        /* \"MyProjects/MultiSig.sol\":1785:1788  _to */\n      dup2\n        /* \"MyProjects/MultiSig.sol\":1785:1802  _to != address(0) */\n      0xffffffffffffffffffffffffffffffffffffffff\n      and\n      sub\n        /* \"MyProjects/MultiSig.sol\":1777:1833  require(_to != address(0), \"Invalid Receiver's Address\") */\n      tag_40\n      jumpi\n      mload(0x40)\n      0x08c379a000000000000000000000000000000000000000000000000000000000\n      dup2\n      mstore\n      0x04\n      add\n      tag_41\n      swap1\n      tag_42\n      jump\t// in\n    tag_41:\n      mload(0x40)\n      dup1\n      swap2\n      sub\n      swap1\n      revert\n    tag_40:\n        /* \"MyProjects/MultiSig.sol\":1864:1865  0 */\n      0x00\n        /* \"MyProjects/MultiSig.sol\":1852:1861  msg.value */\n      callvalue\n        /* \"MyProjects/MultiSig.sol\":1852:1865  msg.value > 0 */\n      gt\n        /* \"MyProjects/MultiSig.sol\":1844:1909  require(msg.value > 0, \" Transfer amount must be greater than 0\") */\n      tag_43\n      jumpi\n      mload(0x40)\n      0x08c379a000000000000000000000000000000000000000000000000000000000\n      dup2\n      mstore\n      0x04\n      add\n      tag_44\n      swap1\n      tag_45\n      jump\t// in\n    tag_44:\n      mload(0x40)\n      dup1\n      swap2\n      sub\n      swap1\n      revert\n    tag_43:\n        /* \"MyProjects/MultiSig.sol\":1922:1940  uint transactionId */\n      0x00\n        /* \"MyProjects/MultiSig.sol\":1943:1955  transactions */\n      0x03\n        /* \"MyProjects/MultiSig.sol\":1943:1962  transactions.length */\n      dup1\n      sload\n      swap1\n      pop\n        /* \"MyProjects/MultiSig.sol\":1922:1962  uint transactionId = transactions.length */\n      swap1\n      pop\n        /* \"MyProjects/MultiSig.sol\":1973:1985  transactions */\n      0x03\n        /* \"MyProjects/MultiSig.sol\":1991:2043  Transaction({to:_to,value:msg.value,executed:false}) */\n      mload(0x40)\n      dup1\n      0x60\n      add\n      0x40\n      mstore\n      dup1\n        /* \"MyProjects/MultiSig.sol\":2007:2010  _to */\n      dup5\n        /* \"MyProjects/MultiSig.sol\":1991:2043  Transaction({to:_to,value:msg.value,executed:false}) */\n      0xffffffffffffffffffffffffffffffffffffffff\n      and\n      dup2\n      mstore\n      0x20\n      add\n        /* \"MyProjects/MultiSig.sol\":2017:2026  msg.value */\n      callvalue\n        /* \"MyProjects/MultiSig.sol\":1991:2043  Transaction({to:_to,value:msg.value,executed:false}) */\n      dup2\n      mstore\n      0x20\n      add\n        /* \"MyProjects/MultiSig.sol\":2036:2041  false */\n      0x00\n        /* \"MyProjects/MultiSig.sol\":1991:2043  Transaction({to:_to,value:msg.value,executed:false}) */\n      iszero\n      iszero\n      dup2\n      mstore\n      pop\n        /* \"MyProjects/MultiSig.sol\":1973:2044  transactions.push(Transaction({to:_to,value:msg.value,executed:false})) */\n      swap1\n      dup1\n      0x01\n      dup2\n      sload\n      add\n      dup1\n      dup3\n      sstore\n      dup1\n      swap2\n      pop\n      pop\n      0x01\n      swap1\n      sub\n      swap1\n      0x00\n      mstore\n      keccak256(0x00, 0x20)\n      swap1\n      0x03\n      mul\n      add\n      0x00\n      swap1\n      swap2\n      swap1\n      swap2\n      swap1\n      swap2\n      pop\n      0x00\n      dup3\n      add\n      mload\n      dup2\n      0x00\n      add\n      exp(0x0100, 0x00)\n      dup2\n      sload\n      dup2\n      0xffffffffffffffffffffffffffffffffffffffff\n      mul\n      not\n      and\n      swap1\n      dup4\n      0xffffffffffffffffffffffffffffffffffffffff\n      and\n      mul\n      or\n      swap1\n      sstore\n      pop\n      0x20\n      dup3\n      add\n      mload\n      dup2\n      0x01\n      add\n      sstore\n      0x40\n      dup3\n      add\n      mload\n      dup2\n      0x02\n      add\n      exp(0x0100, 0x00)\n      dup2\n      sload\n      dup2\n      0xff\n      mul\n      not\n      and\n      swap1\n      dup4\n      iszero\n      iszero\n      mul\n      or\n      swap1\n      sstore\n      pop\n      pop\n      pop\n        /* \"MyProjects/MultiSig.sol\":2060:2120  TransactionSubmitted(transactionId,msg.sender,_to,msg.value) */\n      0x753dcda37efe0bc3675e04e24d1fb08b70681f14675eed4b6e7978495caf2ca0\n        /* \"MyProjects/MultiSig.sol\":2081:2094  transactionId */\n      dup2\n        /* \"MyProjects/MultiSig.sol\":2095:2105  msg.sender */\n      caller\n        /* \"MyProjects/MultiSig.sol\":2106:2109  _to */\n      dup5\n        /* \"MyProjects/MultiSig.sol\":2110:2119  msg.value */\n      callvalue\n        /* \"MyProjects/MultiSig.sol\":2060:2120  TransactionSubmitted(transactionId,msg.sender,_to,msg.value) */\n      mload(0x40)\n      tag_47\n      swap5\n      swap4\n      swap3\n      swap2\n      swap1\n      tag_48\n      jump\t// in\n    tag_47:\n      mload(0x40)\n      dup1\n      swap2\n      sub\n      swap1\n      log1\n        /* \"MyProjects/MultiSig.sol\":1766:2128  {... */\n      pop\n        /* \"MyProjects/MultiSig.sol\":1711:2128  function submitTransaction(address _to) public payable {... */\n      pop\n      jump\t// out\n        /* \"MyProjects/MultiSig.sol\":631:664  Transaction[] public transactions */\n    tag_22:\n      0x03\n      dup2\n      dup2\n      sload\n      dup2\n      lt\n      tag_49\n      jumpi\n      0x00\n      dup1\n      revert\n    tag_49:\n      swap1\n      0x00\n      mstore\n      keccak256(0x00, 0x20)\n      swap1\n      0x03\n      mul\n      add\n      0x00\n      swap2\n      pop\n      swap1\n      pop\n      dup1\n      0x00\n      add\n      0x00\n      swap1\n      sload\n      swap1\n      0x0100\n      exp\n      swap1\n      div\n      0xffffffffffffffffffffffffffffffffffffffff\n      and\n      swap1\n      dup1\n      0x01\n      add\n      sload\n      swap1\n      dup1\n      0x02\n      add\n      0x00\n      swap1\n      sload\n      swap1\n      0x0100\n      exp\n      swap1\n      div\n      0xff\n      and\n      swap1\n      pop\n      dup4\n      jump\t// out\n        /* \"MyProjects/MultiSig.sol\":303:338  uint public numConfirmationRequired */\n    tag_27:\n      sload(0x01)\n      dup2\n      jump\t// out\n        /* \"MyProjects/MultiSig.sol\":2136:2618  function confirmTransaction(uint _transactionId) public {... */\n    tag_33:\n        /* \"MyProjects/MultiSig.sol\":2226:2238  transactions */\n      0x03\n        /* \"MyProjects/MultiSig.sol\":2226:2245  transactions.length */\n      dup1\n      sload\n      swap1\n      pop\n        /* \"MyProjects/MultiSig.sol\":2211:2225  _transactionId */\n      dup2\n        /* \"MyProjects/MultiSig.sol\":2211:2245  _transactionId<transactions.length */\n      lt\n        /* \"MyProjects/MultiSig.sol\":2203:2272  require(_transactionId<transactions.length, \"Invalid transaction Id\") */\n      tag_52\n      jumpi\n      mload(0x40)\n      0x08c379a000000000000000000000000000000000000000000000000000000000\n      dup2\n      mstore\n      0x04\n      add\n      tag_53\n      swap1\n      tag_54\n      jump\t// in\n    tag_53:\n      mload(0x40)\n      dup1\n      swap2\n      sub\n      swap1\n      revert\n    tag_52:\n        /* \"MyProjects/MultiSig.sol\":2292:2303  isConfirmed */\n      0x02\n        /* \"MyProjects/MultiSig.sol\":2292:2319  isConfirmed[_transactionId] */\n      0x00\n        /* \"MyProjects/MultiSig.sol\":2304:2318  _transactionId */\n      dup3\n        /* \"MyProjects/MultiSig.sol\":2292:2319  isConfirmed[_transactionId] */\n      dup2\n      mstore\n      0x20\n      add\n      swap1\n      dup2\n      mstore\n      0x20\n      add\n      0x00\n      keccak256\n        /* \"MyProjects/MultiSig.sol\":2292:2331  isConfirmed[_transactionId][msg.sender] */\n      0x00\n        /* \"MyProjects/MultiSig.sol\":2320:2330  msg.sender */\n      caller\n        /* \"MyProjects/MultiSig.sol\":2292:2331  isConfirmed[_transactionId][msg.sender] */\n      0xffffffffffffffffffffffffffffffffffffffff\n      and\n      0xffffffffffffffffffffffffffffffffffffffff\n      and\n      dup2\n      mstore\n      0x20\n      add\n      swap1\n      dup2\n      mstore\n      0x20\n      add\n      0x00\n      keccak256\n      0x00\n      swap1\n      sload\n      swap1\n      0x0100\n      exp\n      swap1\n      div\n      0xff\n      and\n        /* \"MyProjects/MultiSig.sol\":2291:2331  !isConfirmed[_transactionId][msg.sender] */\n      iszero\n        /* \"MyProjects/MultiSig.sol\":2283:2381  require(!isConfirmed[_transactionId][msg.sender], \"transaction is already confirmed by the Owner\") */\n      tag_55\n      jumpi\n      mload(0x40)\n      0x08c379a000000000000000000000000000000000000000000000000000000000\n      dup2\n      mstore\n      0x04\n      add\n      tag_56\n      swap1\n      tag_57\n      jump\t// in\n    tag_56:\n      mload(0x40)\n      dup1\n      swap2\n      sub\n      swap1\n      revert\n    tag_55:\n        /* \"MyProjects/MultiSig.sol\":2436:2440  true */\n      0x01\n        /* \"MyProjects/MultiSig.sol\":2394:2405  isConfirmed */\n      0x02\n        /* \"MyProjects/MultiSig.sol\":2394:2421  isConfirmed[_transactionId] */\n      0x00\n        /* \"MyProjects/MultiSig.sol\":2406:2420  _transactionId */\n      dup4\n        /* \"MyProjects/MultiSig.sol\":2394:2421  isConfirmed[_transactionId] */\n      dup2\n      mstore\n      0x20\n      add\n      swap1\n      dup2\n      mstore\n      0x20\n      add\n      0x00\n      keccak256\n        /* \"MyProjects/MultiSig.sol\":2394:2433  isConfirmed[_transactionId][msg.sender] */\n      0x00\n        /* \"MyProjects/MultiSig.sol\":2422:2432  msg.sender */\n      caller\n        /* \"MyProjects/MultiSig.sol\":2394:2433  isConfirmed[_transactionId][msg.sender] */\n      0xffffffffffffffffffffffffffffffffffffffff\n      and\n      0xffffffffffffffffffffffffffffffffffffffff\n      and\n      dup2\n      mstore\n      0x20\n      add\n      swap1\n      dup2\n      mstore\n      0x20\n      add\n      0x00\n      keccak256\n      0x00\n        /* \"MyProjects/MultiSig.sol\":2394:2440  isConfirmed[_transactionId][msg.sender] = true */\n      0x0100\n      exp\n      dup2\n      sload\n      dup2\n      0xff\n      mul\n      not\n      and\n      swap1\n      dup4\n      iszero\n      iszero\n      mul\n      or\n      swap1\n      sstore\n      pop\n        /* \"MyProjects/MultiSig.sol\":2458:2494  TransactionConfirmed(_transactionId) */\n      0xef524c298d730e7d5714dbe2fce9d4eca7de755a12628704719170afda39678b\n        /* \"MyProjects/MultiSig.sol\":2479:2493  _transactionId */\n      dup2\n        /* \"MyProjects/MultiSig.sol\":2458:2494  TransactionConfirmed(_transactionId) */\n      mload(0x40)\n      tag_58\n      swap2\n      swap1\n      tag_29\n      jump\t// in\n    tag_58:\n      mload(0x40)\n      dup1\n      swap2\n      sub\n      swap1\n      log1\n        /* \"MyProjects/MultiSig.sol\":2510:2548  isTransactionConfirmed(_transactionId) */\n      tag_59\n        /* \"MyProjects/MultiSig.sol\":2533:2547  _transactionId */\n      dup2\n        /* \"MyProjects/MultiSig.sol\":2510:2532  isTransactionConfirmed */\n      tag_60\n        /* \"MyProjects/MultiSig.sol\":2510:2548  isTransactionConfirmed(_transactionId) */\n      jump\t// in\n    tag_59:\n        /* \"MyProjects/MultiSig.sol\":2507:2611  if(isTransactionConfirmed(_transactionId)) {... */\n      iszero\n      tag_61\n      jumpi\n        /* \"MyProjects/MultiSig.sol\":2565:2599  executeTransaction(_transactionId) */\n      tag_62\n        /* \"MyProjects/MultiSig.sol\":2584:2598  _transactionId */\n      dup2\n        /* \"MyProjects/MultiSig.sol\":2565:2583  executeTransaction */\n      tag_36\n        /* \"MyProjects/MultiSig.sol\":2565:2599  executeTransaction(_transactionId) */\n      jump\t// in\n    tag_62:\n        /* \"MyProjects/MultiSig.sol\":2507:2611  if(isTransactionConfirmed(_transactionId)) {... */\n    tag_61:\n        /* \"MyProjects/MultiSig.sol\":2136:2618  function confirmTransaction(uint _transactionId) public {... */\n      pop\n      jump\t// out\n        /* \"MyProjects/MultiSig.sol\":2626:3265  function executeTransaction(uint _transactionId) public payable {... */\n    tag_36:\n        /* \"MyProjects/MultiSig.sol\":2837:2849  transactions */\n      0x03\n        /* \"MyProjects/MultiSig.sol\":2837:2856  transactions.length */\n      dup1\n      sload\n      swap1\n      pop\n        /* \"MyProjects/MultiSig.sol\":2822:2836  _transactionId */\n      dup2\n        /* \"MyProjects/MultiSig.sol\":2822:2856  _transactionId<transactions.length */\n      lt\n        /* \"MyProjects/MultiSig.sol\":2814:2883  require(_transactionId<transactions.length, \"Invalid transaction Id\") */\n      tag_64\n      jumpi\n      mload(0x40)\n      0x08c379a000000000000000000000000000000000000000000000000000000000\n      dup2\n      mstore\n      0x04\n      add\n      tag_65\n      swap1\n      tag_54\n      jump\t// in\n    tag_65:\n      mload(0x40)\n      dup1\n      swap2\n      sub\n      swap1\n      revert\n    tag_64:\n        /* \"MyProjects/MultiSig.sol\":2903:2915  transactions */\n      0x03\n        /* \"MyProjects/MultiSig.sol\":2916:2930  _transactionId */\n      dup2\n        /* \"MyProjects/MultiSig.sol\":2903:2931  transactions[_transactionId] */\n      dup2\n      sload\n      dup2\n      lt\n      tag_66\n      jumpi\n      tag_67\n      tag_68\n      jump\t// in\n    tag_67:\n    tag_66:\n      swap1\n      0x00\n      mstore\n      keccak256(0x00, 0x20)\n      swap1\n      0x03\n      mul\n      add\n        /* \"MyProjects/MultiSig.sol\":2903:2940  transactions[_transactionId].executed */\n      0x02\n      add\n      0x00\n      swap1\n      sload\n      swap1\n      0x0100\n      exp\n      swap1\n      div\n      0xff\n      and\n        /* \"MyProjects/MultiSig.sol\":2902:2940  !transactions[_transactionId].executed */\n      iszero\n        /* \"MyProjects/MultiSig.sol\":2894:2976  require(!transactions[_transactionId].executed, \"Transaction is already executed\") */\n      tag_70\n      jumpi\n      mload(0x40)\n      0x08c379a000000000000000000000000000000000000000000000000000000000\n      dup2\n      mstore\n      0x04\n      add\n      tag_71\n      swap1\n      tag_72\n      jump\t// in\n    tag_71:\n      mload(0x40)\n      dup1\n      swap2\n      sub\n      swap1\n      revert\n    tag_70:\n        /* \"MyProjects/MultiSig.sol\":2990:3002  bool success */\n      0x00\n        /* \"MyProjects/MultiSig.sol\":3007:3019  transactions */\n      0x03\n        /* \"MyProjects/MultiSig.sol\":3020:3034  _transactionId */\n      dup3\n        /* \"MyProjects/MultiSig.sol\":3007:3035  transactions[_transactionId] */\n      dup2\n      sload\n      dup2\n      lt\n      tag_73\n      jumpi\n      tag_74\n      tag_68\n      jump\t// in\n    tag_74:\n    tag_73:\n      swap1\n      0x00\n      mstore\n      keccak256(0x00, 0x20)\n      swap1\n      0x03\n      mul\n      add\n        /* \"MyProjects/MultiSig.sol\":3007:3038  transactions[_transactionId].to */\n      0x00\n      add\n      0x00\n      swap1\n      sload\n      swap1\n      0x0100\n      exp\n      swap1\n      div\n      0xffffffffffffffffffffffffffffffffffffffff\n      and\n        /* \"MyProjects/MultiSig.sol\":3007:3043  transactions[_transactionId].to.call */\n      0xffffffffffffffffffffffffffffffffffffffff\n      and\n        /* \"MyProjects/MultiSig.sol\":3051:3063  transactions */\n      0x03\n        /* \"MyProjects/MultiSig.sol\":3064:3078  _transactionId */\n      dup4\n        /* \"MyProjects/MultiSig.sol\":3051:3079  transactions[_transactionId] */\n      dup2\n      sload\n      dup2\n      lt\n      tag_76\n      jumpi\n      tag_77\n      tag_68\n      jump\t// in\n    tag_77:\n    tag_76:\n      swap1\n      0x00\n      mstore\n      keccak256(0x00, 0x20)\n      swap1\n      0x03\n      mul\n      add\n        /* \"MyProjects/MultiSig.sol\":3051:3085  transactions[_transactionId].value */\n      0x01\n      add\n      sload\n        /* \"MyProjects/MultiSig.sol\":3007:3090  transactions[_transactionId].to.call{value: transactions[_transactionId].value}(\"\") */\n      mload(0x40)\n      tag_79\n      swap1\n      tag_80\n      jump\t// in\n    tag_79:\n      0x00\n      mload(0x40)\n      dup1\n      dup4\n      sub\n      dup2\n      dup6\n      dup8\n      gas\n      call\n      swap3\n      pop\n      pop\n      pop\n      returndatasize\n      dup1\n      0x00\n      dup2\n      eq\n      tag_83\n      jumpi\n      mload(0x40)\n      swap2\n      pop\n      and(add(returndatasize, 0x3f), not(0x1f))\n      dup3\n      add\n      0x40\n      mstore\n      returndatasize\n      dup3\n      mstore\n      returndatasize\n      0x00\n      0x20\n      dup5\n      add\n      returndatacopy\n      jump(tag_82)\n    tag_83:\n      0x60\n      swap2\n      pop\n    tag_82:\n      pop\n        /* \"MyProjects/MultiSig.sol\":2989:3090  (bool success,) = transactions[_transactionId].to.call{value: transactions[_transactionId].value}(\"\") */\n      pop\n      swap1\n      pop\n        /* \"MyProjects/MultiSig.sol\":3109:3116  success */\n      dup1\n        /* \"MyProjects/MultiSig.sol\":3101:3149  require(success, \"Transaction Execution failed\") */\n      tag_84\n      jumpi\n      mload(0x40)\n      0x08c379a000000000000000000000000000000000000000000000000000000000\n      dup2\n      mstore\n      0x04\n      add\n      tag_85\n      swap1\n      tag_86\n      jump\t// in\n    tag_85:\n      mload(0x40)\n      dup1\n      swap2\n      sub\n      swap1\n      revert\n    tag_84:\n        /* \"MyProjects/MultiSig.sol\":3200:3204  true */\n      0x01\n        /* \"MyProjects/MultiSig.sol\":3160:3172  transactions */\n      0x03\n        /* \"MyProjects/MultiSig.sol\":3173:3187  _transactionId */\n      dup4\n        /* \"MyProjects/MultiSig.sol\":3160:3188  transactions[_transactionId] */\n      dup2\n      sload\n      dup2\n      lt\n      tag_87\n      jumpi\n      tag_88\n      tag_68\n      jump\t// in\n    tag_88:\n    tag_87:\n      swap1\n      0x00\n      mstore\n      keccak256(0x00, 0x20)\n      swap1\n      0x03\n      mul\n      add\n        /* \"MyProjects/MultiSig.sol\":3160:3197  transactions[_transactionId].executed */\n      0x02\n      add\n      0x00\n        /* \"MyProjects/MultiSig.sol\":3160:3204  transactions[_transactionId].executed = true */\n      0x0100\n      exp\n      dup2\n      sload\n      dup2\n      0xff\n      mul\n      not\n      and\n      swap1\n      dup4\n      iszero\n      iszero\n      mul\n      or\n      swap1\n      sstore\n      pop\n        /* \"MyProjects/MultiSig.sol\":3220:3255  TransactionExecuted(_transactionId) */\n      0x15ed165a284872ea7017f03df402a0cadfbfab588320ffaf83f160c2f82781c7\n        /* \"MyProjects/MultiSig.sol\":3240:3254  _transactionId */\n      dup3\n        /* \"MyProjects/MultiSig.sol\":3220:3255  TransactionExecuted(_transactionId) */\n      mload(0x40)\n      tag_90\n      swap2\n      swap1\n      tag_29\n      jump\t// in\n    tag_90:\n      mload(0x40)\n      dup1\n      swap2\n      sub\n      swap1\n      log1\n        /* \"MyProjects/MultiSig.sol\":2690:3265  {... */\n      pop\n        /* \"MyProjects/MultiSig.sol\":2626:3265  function executeTransaction(uint _transactionId) public payable {... */\n      pop\n      jump\t// out\n        /* \"MyProjects/MultiSig.sol\":3273:3723  function isTransactionConfirmed(uint _transactionId) internal view returns(bool){... */\n    tag_60:\n        /* \"MyProjects/MultiSig.sol\":3348:3352  bool */\n      0x00\n        /* \"MyProjects/MultiSig.sol\":3387:3399  transactions */\n      0x03\n        /* \"MyProjects/MultiSig.sol\":3387:3406  transactions.length */\n      dup1\n      sload\n      swap1\n      pop\n        /* \"MyProjects/MultiSig.sol\":3372:3386  _transactionId */\n      dup3\n        /* \"MyProjects/MultiSig.sol\":3372:3406  _transactionId<transactions.length */\n      lt\n        /* \"MyProjects/MultiSig.sol\":3364:3433  require(_transactionId<transactions.length, \"Invalid transaction Id\") */\n      tag_92\n      jumpi\n      mload(0x40)\n      0x08c379a000000000000000000000000000000000000000000000000000000000\n      dup2\n      mstore\n      0x04\n      add\n      tag_93\n      swap1\n      tag_54\n      jump\t// in\n    tag_93:\n      mload(0x40)\n      dup1\n      swap2\n      sub\n      swap1\n      revert\n    tag_92:\n        /* \"MyProjects/MultiSig.sol\":3444:3466  uint confirmationCount */\n      0x00\n        /* \"MyProjects/MultiSig.sol\":3501:3507  uint i */\n      dup1\n        /* \"MyProjects/MultiSig.sol\":3508:3509  0 */\n      0x00\n        /* \"MyProjects/MultiSig.sol\":3501:3509  uint i=0 */\n      swap1\n      pop\n        /* \"MyProjects/MultiSig.sol\":3497:3652  for(uint i=0;i<owners.length;i++){... */\n    tag_94:\n        /* \"MyProjects/MultiSig.sol\":3512:3518  owners */\n      0x00\n        /* \"MyProjects/MultiSig.sol\":3512:3525  owners.length */\n      dup1\n      sload\n      swap1\n      pop\n        /* \"MyProjects/MultiSig.sol\":3510:3511  i */\n      dup2\n        /* \"MyProjects/MultiSig.sol\":3510:3525  i<owners.length */\n      lt\n        /* \"MyProjects/MultiSig.sol\":3497:3652  for(uint i=0;i<owners.length;i++){... */\n      iszero\n      tag_95\n      jumpi\n        /* \"MyProjects/MultiSig.sol\":3548:3559  isConfirmed */\n      0x02\n        /* \"MyProjects/MultiSig.sol\":3548:3575  isConfirmed[_transactionId] */\n      0x00\n        /* \"MyProjects/MultiSig.sol\":3560:3574  _transactionId */\n      dup6\n        /* \"MyProjects/MultiSig.sol\":3548:3575  isConfirmed[_transactionId] */\n      dup2\n      mstore\n      0x20\n      add\n      swap1\n      dup2\n      mstore\n      0x20\n      add\n      0x00\n      keccak256\n        /* \"MyProjects/MultiSig.sol\":3548:3586  isConfirmed[_transactionId][owners[i]] */\n      0x00\n        /* \"MyProjects/MultiSig.sol\":3576:3582  owners */\n      dup1\n        /* \"MyProjects/MultiSig.sol\":3583:3584  i */\n      dup4\n        /* \"MyProjects/MultiSig.sol\":3576:3585  owners[i] */\n      dup2\n      sload\n      dup2\n      lt\n      tag_97\n      jumpi\n      tag_98\n      tag_68\n      jump\t// in\n    tag_98:\n    tag_97:\n      swap1\n      0x00\n      mstore\n      keccak256(0x00, 0x20)\n      add\n      0x00\n      swap1\n      sload\n      swap1\n      0x0100\n      exp\n      swap1\n      div\n      0xffffffffffffffffffffffffffffffffffffffff\n      and\n        /* \"MyProjects/MultiSig.sol\":3548:3586  isConfirmed[_transactionId][owners[i]] */\n      0xffffffffffffffffffffffffffffffffffffffff\n      and\n      0xffffffffffffffffffffffffffffffffffffffff\n      and\n      dup2\n      mstore\n      0x20\n      add\n      swap1\n      dup2\n      mstore\n      0x20\n      add\n      0x00\n      keccak256\n      0x00\n      swap1\n      sload\n      swap1\n      0x0100\n      exp\n      swap1\n      div\n      0xff\n      and\n        /* \"MyProjects/MultiSig.sol\":3545:3641  if(isConfirmed[_transactionId][owners[i]]){... */\n      iszero\n      tag_100\n      jumpi\n        /* \"MyProjects/MultiSig.sol\":3606:3625  confirmationCount++ */\n      dup2\n      dup1\n      tag_101\n      swap1\n      tag_102\n      jump\t// in\n    tag_101:\n      swap3\n      pop\n      pop\n        /* \"MyProjects/MultiSig.sol\":3545:3641  if(isConfirmed[_transactionId][owners[i]]){... */\n    tag_100:\n        /* \"MyProjects/MultiSig.sol\":3526:3529  i++ */\n      dup1\n      dup1\n      0x01\n      add\n      swap2\n      pop\n      pop\n        /* \"MyProjects/MultiSig.sol\":3497:3652  for(uint i=0;i<owners.length;i++){... */\n      jump(tag_94)\n    tag_95:\n      pop\n        /* \"MyProjects/MultiSig.sol\":3692:3715  numConfirmationRequired */\n      sload(0x01)\n        /* \"MyProjects/MultiSig.sol\":3671:3688  confirmationCount */\n      dup2\n        /* \"MyProjects/MultiSig.sol\":3671:3715  confirmationCount >= numConfirmationRequired */\n      lt\n      iszero\n        /* \"MyProjects/MultiSig.sol\":3664:3715  return confirmationCount >= numConfirmationRequired */\n      swap2\n      pop\n      pop\n        /* \"MyProjects/MultiSig.sol\":3273:3723  function isTransactionConfirmed(uint _transactionId) internal view returns(bool){... */\n      swap2\n      swap1\n      pop\n      jump\t// out\n        /* \"#utility.yul\":88:205   */\n    tag_104:\n        /* \"#utility.yul\":197:198   */\n      0x00\n        /* \"#utility.yul\":194:195   */\n      dup1\n        /* \"#utility.yul\":187:199   */\n      revert\n        /* \"#utility.yul\":334:411   */\n    tag_106:\n        /* \"#utility.yul\":371:378   */\n      0x00\n        /* \"#utility.yul\":400:405   */\n      dup2\n        /* \"#utility.yul\":389:405   */\n      swap1\n      pop\n        /* \"#utility.yul\":334:411   */\n      swap2\n      swap1\n      pop\n      jump\t// out\n        /* \"#utility.yul\":417:539   */\n    tag_107:\n        /* \"#utility.yul\":490:514   */\n      tag_140\n        /* \"#utility.yul\":508:513   */\n      dup2\n        /* \"#utility.yul\":490:514   */\n      tag_106\n      jump\t// in\n    tag_140:\n        /* \"#utility.yul\":483:488   */\n      dup2\n        /* \"#utility.yul\":480:515   */\n      eq\n        /* \"#utility.yul\":470:533   */\n      tag_141\n      jumpi\n        /* \"#utility.yul\":529:530   */\n      0x00\n        /* \"#utility.yul\":526:527   */\n      dup1\n        /* \"#utility.yul\":519:531   */\n      revert\n        /* \"#utility.yul\":470:533   */\n    tag_141:\n        /* \"#utility.yul\":417:539   */\n      pop\n      jump\t// out\n        /* \"#utility.yul\":545:684   */\n    tag_108:\n        /* \"#utility.yul\":591:596   */\n      0x00\n        /* \"#utility.yul\":629:635   */\n      dup2\n        /* \"#utility.yul\":616:636   */\n      calldataload\n        /* \"#utility.yul\":607:636   */\n      swap1\n      pop\n        /* \"#utility.yul\":645:678   */\n      tag_143\n        /* \"#utility.yul\":672:677   */\n      dup2\n        /* \"#utility.yul\":645:678   */\n      tag_107\n      jump\t// in\n    tag_143:\n        /* \"#utility.yul\":545:684   */\n      swap3\n      swap2\n      pop\n      pop\n      jump\t// out\n        /* \"#utility.yul\":690:1019   */\n    tag_11:\n        /* \"#utility.yul\":749:755   */\n      0x00\n        /* \"#utility.yul\":798:800   */\n      0x20\n        /* \"#utility.yul\":786:795   */\n      dup3\n        /* \"#utility.yul\":777:784   */\n      dup5\n        /* \"#utility.yul\":773:796   */\n      sub\n        /* \"#utility.yul\":769:801   */\n      slt\n        /* \"#utility.yul\":766:885   */\n      iszero\n      tag_145\n      jumpi\n        /* \"#utility.yul\":804:883   */\n      tag_146\n      tag_104\n      jump\t// in\n    tag_146:\n        /* \"#utility.yul\":766:885   */\n    tag_145:\n        /* \"#utility.yul\":924:925   */\n      0x00\n        /* \"#utility.yul\":949:1002   */\n      tag_147\n        /* \"#utility.yul\":994:1001   */\n      dup5\n        /* \"#utility.yul\":985:991   */\n      dup3\n        /* \"#utility.yul\":974:983   */\n      dup6\n        /* \"#utility.yul\":970:992   */\n      add\n        /* \"#utility.yul\":949:1002   */\n      tag_108\n      jump\t// in\n    tag_147:\n        /* \"#utility.yul\":939:1002   */\n      swap2\n      pop\n        /* \"#utility.yul\":895:1012   */\n      pop\n        /* \"#utility.yul\":690:1019   */\n      swap3\n      swap2\n      pop\n      pop\n      jump\t// out\n        /* \"#utility.yul\":1025:1151   */\n    tag_109:\n        /* \"#utility.yul\":1062:1069   */\n      0x00\n        /* \"#utility.yul\":1102:1144   */\n      0xffffffffffffffffffffffffffffffffffffffff\n        /* \"#utility.yul\":1095:1100   */\n      dup3\n        /* \"#utility.yul\":1091:1145   */\n      and\n        /* \"#utility.yul\":1080:1145   */\n      swap1\n      pop\n        /* \"#utility.yul\":1025:1151   */\n      swap2\n      swap1\n      pop\n      jump\t// out\n        /* \"#utility.yul\":1157:1253   */\n    tag_110:\n        /* \"#utility.yul\":1194:1201   */\n      0x00\n        /* \"#utility.yul\":1223:1247   */\n      tag_150\n        /* \"#utility.yul\":1241:1246   */\n      dup3\n        /* \"#utility.yul\":1223:1247   */\n      tag_109\n      jump\t// in\n    tag_150:\n        /* \"#utility.yul\":1212:1247   */\n      swap1\n      pop\n        /* \"#utility.yul\":1157:1253   */\n      swap2\n      swap1\n      pop\n      jump\t// out\n        /* \"#utility.yul\":1259:1377   */\n    tag_111:\n        /* \"#utility.yul\":1346:1370   */\n      tag_152\n        /* \"#utility.yul\":1364:1369   */\n      dup2\n        /* \"#utility.yul\":1346:1370   */\n      tag_110\n      jump\t// in\n    tag_152:\n        /* \"#utility.yul\":1341:1344   */\n      dup3\n        /* \"#utility.yul\":1334:1371   */\n      mstore\n        /* \"#utility.yul\":1259:1377   */\n      pop\n      pop\n      jump\t// out\n        /* \"#utility.yul\":1383:1605   */\n    tag_14:\n        /* \"#utility.yul\":1476:1480   */\n      0x00\n        /* \"#utility.yul\":1514:1516   */\n      0x20\n        /* \"#utility.yul\":1503:1512   */\n      dup3\n        /* \"#utility.yul\":1499:1517   */\n      add\n        /* \"#utility.yul\":1491:1517   */\n      swap1\n      pop\n        /* \"#utility.yul\":1527:1598   */\n      tag_154\n        /* \"#utility.yul\":1595:1596   */\n      0x00\n        /* \"#utility.yul\":1584:1593   */\n      dup4\n        /* \"#utility.yul\":1580:1597   */\n      add\n        /* \"#utility.yul\":1571:1577   */\n      dup5\n        /* \"#utility.yul\":1527:1598   */\n      tag_111\n      jump\t// in\n    tag_154:\n        /* \"#utility.yul\":1383:1605   */\n      swap3\n      swap2\n      pop\n      pop\n      jump\t// out\n        /* \"#utility.yul\":1611:1733   */\n    tag_112:\n        /* \"#utility.yul\":1684:1708   */\n      tag_156\n        /* \"#utility.yul\":1702:1707   */\n      dup2\n        /* \"#utility.yul\":1684:1708   */\n      tag_110\n      jump\t// in\n    tag_156:\n        /* \"#utility.yul\":1677:1682   */\n      dup2\n        /* \"#utility.yul\":1674:1709   */\n      eq\n        /* \"#utility.yul\":1664:1727   */\n      tag_157\n      jumpi\n        /* \"#utility.yul\":1723:1724   */\n      0x00\n        /* \"#utility.yul\":1720:1721   */\n      dup1\n        /* \"#utility.yul\":1713:1725   */\n      revert\n        /* \"#utility.yul\":1664:1727   */\n    tag_157:\n        /* \"#utility.yul\":1611:1733   */\n      pop\n      jump\t// out\n        /* \"#utility.yul\":1739:1878   */\n    tag_113:\n        /* \"#utility.yul\":1785:1790   */\n      0x00\n        /* \"#utility.yul\":1823:1829   */\n      dup2\n        /* \"#utility.yul\":1810:1830   */\n      calldataload\n        /* \"#utility.yul\":1801:1830   */\n      swap1\n      pop\n        /* \"#utility.yul\":1839:1872   */\n      tag_159\n        /* \"#utility.yul\":1866:1871   */\n      dup2\n        /* \"#utility.yul\":1839:1872   */\n      tag_112\n      jump\t// in\n    tag_159:\n        /* \"#utility.yul\":1739:1878   */\n      swap3\n      swap2\n      pop\n      pop\n      jump\t// out\n        /* \"#utility.yul\":1884:2213   */\n    tag_17:\n        /* \"#utility.yul\":1943:1949   */\n      0x00\n        /* \"#utility.yul\":1992:1994   */\n      0x20\n        /* \"#utility.yul\":1980:1989   */\n      dup3\n        /* \"#utility.yul\":1971:1978   */\n      dup5\n        /* \"#utility.yul\":1967:1990   */\n      sub\n        /* \"#utility.yul\":1963:1995   */\n      slt\n        /* \"#utility.yul\":1960:2079   */\n      iszero\n      tag_161\n      jumpi\n        /* \"#utility.yul\":1998:2077   */\n      tag_162\n      tag_104\n      jump\t// in\n    tag_162:\n        /* \"#utility.yul\":1960:2079   */\n    tag_161:\n        /* \"#utility.yul\":2118:2119   */\n      0x00\n        /* \"#utility.yul\":2143:2196   */\n      tag_163\n        /* \"#utility.yul\":2188:2195   */\n      dup5\n        /* \"#utility.yul\":2179:2185   */\n      dup3\n        /* \"#utility.yul\":2168:2177   */\n      dup6\n        /* \"#utility.yul\":2164:2186   */\n      add\n        /* \"#utility.yul\":2143:2196   */\n      tag_113\n      jump\t// in\n    tag_163:\n        /* \"#utility.yul\":2133:2196   */\n      swap2\n      pop\n        /* \"#utility.yul\":2089:2206   */\n      pop\n        /* \"#utility.yul\":1884:2213   */\n      swap3\n      swap2\n      pop\n      pop\n      jump\t// out\n        /* \"#utility.yul\":2219:2337   */\n    tag_114:\n        /* \"#utility.yul\":2306:2330   */\n      tag_165\n        /* \"#utility.yul\":2324:2329   */\n      dup2\n        /* \"#utility.yul\":2306:2330   */\n      tag_106\n      jump\t// in\n    tag_165:\n        /* \"#utility.yul\":2301:2304   */\n      dup3\n        /* \"#utility.yul\":2294:2331   */\n      mstore\n        /* \"#utility.yul\":2219:2337   */\n      pop\n      pop\n      jump\t// out\n        /* \"#utility.yul\":2343:2433   */\n    tag_115:\n        /* \"#utility.yul\":2377:2384   */\n      0x00\n        /* \"#utility.yul\":2420:2425   */\n      dup2\n        /* \"#utility.yul\":2413:2426   */\n      iszero\n        /* \"#utility.yul\":2406:2427   */\n      iszero\n        /* \"#utility.yul\":2395:2427   */\n      swap1\n      pop\n        /* \"#utility.yul\":2343:2433   */\n      swap2\n      swap1\n      pop\n      jump\t// out\n        /* \"#utility.yul\":2439:2548   */\n    tag_116:\n        /* \"#utility.yul\":2520:2541   */\n      tag_168\n        /* \"#utility.yul\":2535:2540   */\n      dup2\n        /* \"#utility.yul\":2520:2541   */\n      tag_115\n      jump\t// in\n    tag_168:\n        /* \"#utility.yul\":2515:2518   */\n      dup3\n        /* \"#utility.yul\":2508:2542   */\n      mstore\n        /* \"#utility.yul\":2439:2548   */\n      pop\n      pop\n      jump\t// out\n        /* \"#utility.yul\":2554:2984   */\n    tag_24:\n        /* \"#utility.yul\":2697:2701   */\n      0x00\n        /* \"#utility.yul\":2735:2737   */\n      0x60\n        /* \"#utility.yul\":2724:2733   */\n      dup3\n        /* \"#utility.yul\":2720:2738   */\n      add\n        /* \"#utility.yul\":2712:2738   */\n      swap1\n      pop\n        /* \"#utility.yul\":2748:2819   */\n      tag_170\n        /* \"#utility.yul\":2816:2817   */\n      0x00\n        /* \"#utility.yul\":2805:2814   */\n      dup4\n        /* \"#utility.yul\":2801:2818   */\n      add\n        /* \"#utility.yul\":2792:2798   */\n      dup7\n        /* \"#utility.yul\":2748:2819   */\n      tag_111\n      jump\t// in\n    tag_170:\n        /* \"#utility.yul\":2829:2901   */\n      tag_171\n        /* \"#utility.yul\":2897:2899   */\n      0x20\n        /* \"#utility.yul\":2886:2895   */\n      dup4\n        /* \"#utility.yul\":2882:2900   */\n      add\n        /* \"#utility.yul\":2873:2879   */\n      dup6\n        /* \"#utility.yul\":2829:2901   */\n      tag_114\n      jump\t// in\n    tag_171:\n        /* \"#utility.yul\":2911:2977   */\n      tag_172\n        /* \"#utility.yul\":2973:2975   */\n      0x40\n        /* \"#utility.yul\":2962:2971   */\n      dup4\n        /* \"#utility.yul\":2958:2976   */\n      add\n        /* \"#utility.yul\":2949:2955   */\n      dup5\n        /* \"#utility.yul\":2911:2977   */\n      tag_116\n      jump\t// in\n    tag_172:\n        /* \"#utility.yul\":2554:2984   */\n      swap5\n      swap4\n      pop\n      pop\n      pop\n      pop\n      jump\t// out\n        /* \"#utility.yul\":2990:3212   */\n    tag_29:\n        /* \"#utility.yul\":3083:3087   */\n      0x00\n        /* \"#utility.yul\":3121:3123   */\n      0x20\n        /* \"#utility.yul\":3110:3119   */\n      dup3\n        /* \"#utility.yul\":3106:3124   */\n      add\n        /* \"#utility.yul\":3098:3124   */\n      swap1\n      pop\n        /* \"#utility.yul\":3134:3205   */\n      tag_174\n        /* \"#utility.yul\":3202:3203   */\n      0x00\n        /* \"#utility.yul\":3191:3200   */\n      dup4\n        /* \"#utility.yul\":3187:3204   */\n      add\n        /* \"#utility.yul\":3178:3184   */\n      dup5\n        /* \"#utility.yul\":3134:3205   */\n      tag_114\n      jump\t// in\n    tag_174:\n        /* \"#utility.yul\":2990:3212   */\n      swap3\n      swap2\n      pop\n      pop\n      jump\t// out\n        /* \"#utility.yul\":3218:3387   */\n    tag_117:\n        /* \"#utility.yul\":3302:3313   */\n      0x00\n        /* \"#utility.yul\":3336:3342   */\n      dup3\n        /* \"#utility.yul\":3331:3334   */\n      dup3\n        /* \"#utility.yul\":3324:3343   */\n      mstore\n        /* \"#utility.yul\":3376:3380   */\n      0x20\n        /* \"#utility.yul\":3371:3374   */\n      dup3\n        /* \"#utility.yul\":3367:3381   */\n      add\n        /* \"#utility.yul\":3352:3381   */\n      swap1\n      pop\n        /* \"#utility.yul\":3218:3387   */\n      swap3\n      swap2\n      pop\n      pop\n      jump\t// out\n        /* \"#utility.yul\":3393:3569   */\n    tag_118:\n        /* \"#utility.yul\":3533:3561   */\n      0x496e76616c696420526563656976657227732041646472657373000000000000\n        /* \"#utility.yul\":3529:3530   */\n      0x00\n        /* \"#utility.yul\":3521:3527   */\n      dup3\n        /* \"#utility.yul\":3517:3531   */\n      add\n        /* \"#utility.yul\":3510:3562   */\n      mstore\n        /* \"#utility.yul\":3393:3569   */\n      pop\n      jump\t// out\n        /* \"#utility.yul\":3575:3941   */\n    tag_119:\n        /* \"#utility.yul\":3717:3720   */\n      0x00\n        /* \"#utility.yul\":3738:3805   */\n      tag_178\n        /* \"#utility.yul\":3802:3804   */\n      0x1a\n        /* \"#utility.yul\":3797:3800   */\n      dup4\n        /* \"#utility.yul\":3738:3805   */\n      tag_117\n      jump\t// in\n    tag_178:\n        /* \"#utility.yul\":3731:3805   */\n      swap2\n      pop\n        /* \"#utility.yul\":3814:3907   */\n      tag_179\n        /* \"#utility.yul\":3903:3906   */\n      dup3\n        /* \"#utility.yul\":3814:3907   */\n      tag_118\n      jump\t// in\n    tag_179:\n        /* \"#utility.yul\":3932:3934   */\n      0x20\n        /* \"#utility.yul\":3927:3930   */\n      dup3\n        /* \"#utility.yul\":3923:3935   */\n      add\n        /* \"#utility.yul\":3916:3935   */\n      swap1\n      pop\n        /* \"#utility.yul\":3575:3941   */\n      swap2\n      swap1\n      pop\n      jump\t// out\n        /* \"#utility.yul\":3947:4366   */\n    tag_42:\n        /* \"#utility.yul\":4113:4117   */\n      0x00\n        /* \"#utility.yul\":4151:4153   */\n      0x20\n        /* \"#utility.yul\":4140:4149   */\n      dup3\n        /* \"#utility.yul\":4136:4154   */\n      add\n        /* \"#utility.yul\":4128:4154   */\n      swap1\n      pop\n        /* \"#utility.yul\":4200:4209   */\n      dup2\n        /* \"#utility.yul\":4194:4198   */\n      dup2\n        /* \"#utility.yul\":4190:4210   */\n      sub\n        /* \"#utility.yul\":4186:4187   */\n      0x00\n        /* \"#utility.yul\":4175:4184   */\n      dup4\n        /* \"#utility.yul\":4171:4188   */\n      add\n        /* \"#utility.yul\":4164:4211   */\n      mstore\n        /* \"#utility.yul\":4228:4359   */\n      tag_181\n        /* \"#utility.yul\":4354:4358   */\n      dup2\n        /* \"#utility.yul\":4228:4359   */\n      tag_119\n      jump\t// in\n    tag_181:\n        /* \"#utility.yul\":4220:4359   */\n      swap1\n      pop\n        /* \"#utility.yul\":3947:4366   */\n      swap2\n      swap1\n      pop\n      jump\t// out\n        /* \"#utility.yul\":4372:4598   */\n    tag_120:\n        /* \"#utility.yul\":4512:4546   */\n      0x205472616e7366657220616d6f756e74206d7573742062652067726561746572\n        /* \"#utility.yul\":4508:4509   */\n      0x00\n        /* \"#utility.yul\":4500:4506   */\n      dup3\n        /* \"#utility.yul\":4496:4510   */\n      add\n        /* \"#utility.yul\":4489:4547   */\n      mstore\n        /* \"#utility.yul\":4581:4590   */\n      0x207468616e203000000000000000000000000000000000000000000000000000\n        /* \"#utility.yul\":4576:4578   */\n      0x20\n        /* \"#utility.yul\":4568:4574   */\n      dup3\n        /* \"#utility.yul\":4564:4579   */\n      add\n        /* \"#utility.yul\":4557:4591   */\n      mstore\n        /* \"#utility.yul\":4372:4598   */\n      pop\n      jump\t// out\n        /* \"#utility.yul\":4604:4970   */\n    tag_121:\n        /* \"#utility.yul\":4746:4749   */\n      0x00\n        /* \"#utility.yul\":4767:4834   */\n      tag_184\n        /* \"#utility.yul\":4831:4833   */\n      0x27\n        /* \"#utility.yul\":4826:4829   */\n      dup4\n        /* \"#utility.yul\":4767:4834   */\n      tag_117\n      jump\t// in\n    tag_184:\n        /* \"#utility.yul\":4760:4834   */\n      swap2\n      pop\n        /* \"#utility.yul\":4843:4936   */\n      tag_185\n        /* \"#utility.yul\":4932:4935   */\n      dup3\n        /* \"#utility.yul\":4843:4936   */\n      tag_120\n      jump\t// in\n    tag_185:\n        /* \"#utility.yul\":4961:4963   */\n      0x40\n        /* \"#utility.yul\":4956:4959   */\n      dup3\n        /* \"#utility.yul\":4952:4964   */\n      add\n        /* \"#utility.yul\":4945:4964   */\n      swap1\n      pop\n        /* \"#utility.yul\":4604:4970   */\n      swap2\n      swap1\n      pop\n      jump\t// out\n        /* \"#utility.yul\":4976:5395   */\n    tag_45:\n        /* \"#utility.yul\":5142:5146   */\n      0x00\n        /* \"#utility.yul\":5180:5182   */\n      0x20\n        /* \"#utility.yul\":5169:5178   */\n      dup3\n        /* \"#utility.yul\":5165:5183   */\n      add\n        /* \"#utility.yul\":5157:5183   */\n      swap1\n      pop\n        /* \"#utility.yul\":5229:5238   */\n      dup2\n        /* \"#utility.yul\":5223:5227   */\n      dup2\n        /* \"#utility.yul\":5219:5239   */\n      sub\n        /* \"#utility.yul\":5215:5216   */\n      0x00\n        /* \"#utility.yul\":5204:5213   */\n      dup4\n        /* \"#utility.yul\":5200:5217   */\n      add\n        /* \"#utility.yul\":5193:5240   */\n      mstore\n        /* \"#utility.yul\":5257:5388   */\n      tag_187\n        /* \"#utility.yul\":5383:5387   */\n      dup2\n        /* \"#utility.yul\":5257:5388   */\n      tag_121\n      jump\t// in\n    tag_187:\n        /* \"#utility.yul\":5249:5388   */\n      swap1\n      pop\n        /* \"#utility.yul\":4976:5395   */\n      swap2\n      swap1\n      pop\n      jump\t// out\n        /* \"#utility.yul\":5401:5954   */\n    tag_48:\n        /* \"#utility.yul\":5578:5582   */\n      0x00\n        /* \"#utility.yul\":5616:5619   */\n      0x80\n        /* \"#utility.yul\":5605:5614   */\n      dup3\n        /* \"#utility.yul\":5601:5620   */\n      add\n        /* \"#utility.yul\":5593:5620   */\n      swap1\n      pop\n        /* \"#utility.yul\":5630:5701   */\n      tag_189\n        /* \"#utility.yul\":5698:5699   */\n      0x00\n        /* \"#utility.yul\":5687:5696   */\n      dup4\n        /* \"#utility.yul\":5683:5700   */\n      add\n        /* \"#utility.yul\":5674:5680   */\n      dup8\n        /* \"#utility.yul\":5630:5701   */\n      tag_114\n      jump\t// in\n    tag_189:\n        /* \"#utility.yul\":5711:5783   */\n      tag_190\n        /* \"#utility.yul\":5779:5781   */\n      0x20\n        /* \"#utility.yul\":5768:5777   */\n      dup4\n        /* \"#utility.yul\":5764:5782   */\n      add\n        /* \"#utility.yul\":5755:5761   */\n      dup7\n        /* \"#utility.yul\":5711:5783   */\n      tag_111\n      jump\t// in\n    tag_190:\n        /* \"#utility.yul\":5793:5865   */\n      tag_191\n        /* \"#utility.yul\":5861:5863   */\n      0x40\n        /* \"#utility.yul\":5850:5859   */\n      dup4\n        /* \"#utility.yul\":5846:5864   */\n      add\n        /* \"#utility.yul\":5837:5843   */\n      dup6\n        /* \"#utility.yul\":5793:5865   */\n      tag_111\n      jump\t// in\n    tag_191:\n        /* \"#utility.yul\":5875:5947   */\n      tag_192\n        /* \"#utility.yul\":5943:5945   */\n      0x60\n        /* \"#utility.yul\":5932:5941   */\n      dup4\n        /* \"#utility.yul\":5928:5946   */\n      add\n        /* \"#utility.yul\":5919:5925   */\n      dup5\n        /* \"#utility.yul\":5875:5947   */\n      tag_114\n      jump\t// in\n    tag_192:\n        /* \"#utility.yul\":5401:5954   */\n      swap6\n      swap5\n      pop\n      pop\n      pop\n      pop\n      pop\n      jump\t// out\n        /* \"#utility.yul\":5960:6132   */\n    tag_122:\n        /* \"#utility.yul\":6100:6124   */\n      0x496e76616c6964207472616e73616374696f6e20496400000000000000000000\n        /* \"#utility.yul\":6096:6097   */\n      0x00\n        /* \"#utility.yul\":6088:6094   */\n      dup3\n        /* \"#utility.yul\":6084:6098   */\n      add\n        /* \"#utility.yul\":6077:6125   */\n      mstore\n        /* \"#utility.yul\":5960:6132   */\n      pop\n      jump\t// out\n        /* \"#utility.yul\":6138:6504   */\n    tag_123:\n        /* \"#utility.yul\":6280:6283   */\n      0x00\n        /* \"#utility.yul\":6301:6368   */\n      tag_195\n        /* \"#utility.yul\":6365:6367   */\n      0x16\n        /* \"#utility.yul\":6360:6363   */\n      dup4\n        /* \"#utility.yul\":6301:6368   */\n      tag_117\n      jump\t// in\n    tag_195:\n        /* \"#utility.yul\":6294:6368   */\n      swap2\n      pop\n        /* \"#utility.yul\":6377:6470   */\n      tag_196\n        /* \"#utility.yul\":6466:6469   */\n      dup3\n        /* \"#utility.yul\":6377:6470   */\n      tag_122\n      jump\t// in\n    tag_196:\n        /* \"#utility.yul\":6495:6497   */\n      0x20\n        /* \"#utility.yul\":6490:6493   */\n      dup3\n        /* \"#utility.yul\":6486:6498   */\n      add\n        /* \"#utility.yul\":6479:6498   */\n      swap1\n      pop\n        /* \"#utility.yul\":6138:6504   */\n      swap2\n      swap1\n      pop\n      jump\t// out\n        /* \"#utility.yul\":6510:6929   */\n    tag_54:\n        /* \"#utility.yul\":6676:6680   */\n      0x00\n        /* \"#utility.yul\":6714:6716   */\n      0x20\n        /* \"#utility.yul\":6703:6712   */\n      dup3\n        /* \"#utility.yul\":6699:6717   */\n      add\n        /* \"#utility.yul\":6691:6717   */\n      swap1\n      pop\n        /* \"#utility.yul\":6763:6772   */\n      dup2\n        /* \"#utility.yul\":6757:6761   */\n      dup2\n        /* \"#utility.yul\":6753:6773   */\n      sub\n        /* \"#utility.yul\":6749:6750   */\n      0x00\n        /* \"#utility.yul\":6738:6747   */\n      dup4\n        /* \"#utility.yul\":6734:6751   */\n      add\n        /* \"#utility.yul\":6727:6774   */\n      mstore\n        /* \"#utility.yul\":6791:6922   */\n      tag_198\n        /* \"#utility.yul\":6917:6921   */\n      dup2\n        /* \"#utility.yul\":6791:6922   */\n      tag_123\n      jump\t// in\n    tag_198:\n        /* \"#utility.yul\":6783:6922   */\n      swap1\n      pop\n        /* \"#utility.yul\":6510:6929   */\n      swap2\n      swap1\n      pop\n      jump\t// out\n        /* \"#utility.yul\":6935:7167   */\n    tag_124:\n        /* \"#utility.yul\":7075:7109   */\n      0x7472616e73616374696f6e20697320616c726561647920636f6e6669726d6564\n        /* \"#utility.yul\":7071:7072   */\n      0x00\n        /* \"#utility.yul\":7063:7069   */\n      dup3\n        /* \"#utility.yul\":7059:7073   */\n      add\n        /* \"#utility.yul\":7052:7110   */\n      mstore\n        /* \"#utility.yul\":7144:7159   */\n      0x20627920746865204f776e657200000000000000000000000000000000000000\n        /* \"#utility.yul\":7139:7141   */\n      0x20\n        /* \"#utility.yul\":7131:7137   */\n      dup3\n        /* \"#utility.yul\":7127:7142   */\n      add\n        /* \"#utility.yul\":7120:7160   */\n      mstore\n        /* \"#utility.yul\":6935:7167   */\n      pop\n      jump\t// out\n        /* \"#utility.yul\":7173:7539   */\n    tag_125:\n        /* \"#utility.yul\":7315:7318   */\n      0x00\n        /* \"#utility.yul\":7336:7403   */\n      tag_201\n        /* \"#utility.yul\":7400:7402   */\n      0x2d\n        /* \"#utility.yul\":7395:7398   */\n      dup4\n        /* \"#utility.yul\":7336:7403   */\n      tag_117\n      jump\t// in\n    tag_201:\n        /* \"#utility.yul\":7329:7403   */\n      swap2\n      pop\n        /* \"#utility.yul\":7412:7505   */\n      tag_202\n        /* \"#utility.yul\":7501:7504   */\n      dup3\n        /* \"#utility.yul\":7412:7505   */\n      tag_124\n      jump\t// in\n    tag_202:\n        /* \"#utility.yul\":7530:7532   */\n      0x40\n        /* \"#utility.yul\":7525:7528   */\n      dup3\n        /* \"#utility.yul\":7521:7533   */\n      add\n        /* \"#utility.yul\":7514:7533   */\n      swap1\n      pop\n        /* \"#utility.yul\":7173:7539   */\n      swap2\n      swap1\n      pop\n      jump\t// out\n        /* \"#utility.yul\":7545:7964   */\n    tag_57:\n        /* \"#utility.yul\":7711:7715   */\n      0x00\n        /* \"#utility.yul\":7749:7751   */\n      0x20\n        /* \"#utility.yul\":7738:7747   */\n      dup3\n        /* \"#utility.yul\":7734:7752   */\n      add\n        /* \"#utility.yul\":7726:7752   */\n      swap1\n      pop\n        /* \"#utility.yul\":7798:7807   */\n      dup2\n        /* \"#utility.yul\":7792:7796   */\n      dup2\n        /* \"#utility.yul\":7788:7808   */\n      sub\n        /* \"#utility.yul\":7784:7785   */\n      0x00\n        /* \"#utility.yul\":7773:7782   */\n      dup4\n        /* \"#utility.yul\":7769:7786   */\n      add\n        /* \"#utility.yul\":7762:7809   */\n      mstore\n        /* \"#utility.yul\":7826:7957   */\n      tag_204\n        /* \"#utility.yul\":7952:7956   */\n      dup2\n        /* \"#utility.yul\":7826:7957   */\n      tag_125\n      jump\t// in\n    tag_204:\n        /* \"#utility.yul\":7818:7957   */\n      swap1\n      pop\n        /* \"#utility.yul\":7545:7964   */\n      swap2\n      swap1\n      pop\n      jump\t// out\n        /* \"#utility.yul\":7970:8150   */\n    tag_68:\n        /* \"#utility.yul\":8018:8095   */\n      0x4e487b7100000000000000000000000000000000000000000000000000000000\n        /* \"#utility.yul\":8015:8016   */\n      0x00\n        /* \"#utility.yul\":8008:8096   */\n      mstore\n        /* \"#utility.yul\":8115:8119   */\n      0x32\n        /* \"#utility.yul\":8112:8113   */\n      0x04\n        /* \"#utility.yul\":8105:8120   */\n      mstore\n        /* \"#utility.yul\":8139:8143   */\n      0x24\n        /* \"#utility.yul\":8136:8137   */\n      0x00\n        /* \"#utility.yul\":8129:8144   */\n      revert\n        /* \"#utility.yul\":8156:8337   */\n    tag_126:\n        /* \"#utility.yul\":8296:8329   */\n      0x5472616e73616374696f6e20697320616c726561647920657865637574656400\n        /* \"#utility.yul\":8292:8293   */\n      0x00\n        /* \"#utility.yul\":8284:8290   */\n      dup3\n        /* \"#utility.yul\":8280:8294   */\n      add\n        /* \"#utility.yul\":8273:8330   */\n      mstore\n        /* \"#utility.yul\":8156:8337   */\n      pop\n      jump\t// out\n        /* \"#utility.yul\":8343:8709   */\n    tag_127:\n        /* \"#utility.yul\":8485:8488   */\n      0x00\n        /* \"#utility.yul\":8506:8573   */\n      tag_208\n        /* \"#utility.yul\":8570:8572   */\n      0x1f\n        /* \"#utility.yul\":8565:8568   */\n      dup4\n        /* \"#utility.yul\":8506:8573   */\n      tag_117\n      jump\t// in\n    tag_208:\n        /* \"#utility.yul\":8499:8573   */\n      swap2\n      pop\n        /* \"#utility.yul\":8582:8675   */\n      tag_209\n        /* \"#utility.yul\":8671:8674   */\n      dup3\n        /* \"#utility.yul\":8582:8675   */\n      tag_126\n      jump\t// in\n    tag_209:\n        /* \"#utility.yul\":8700:8702   */\n      0x20\n        /* \"#utility.yul\":8695:8698   */\n      dup3\n        /* \"#utility.yul\":8691:8703   */\n      add\n        /* \"#utility.yul\":8684:8703   */\n      swap1\n      pop\n        /* \"#utility.yul\":8343:8709   */\n      swap2\n      swap1\n      pop\n      jump\t// out\n        /* \"#utility.yul\":8715:9134   */\n    tag_72:\n        /* \"#utility.yul\":8881:8885   */\n      0x00\n        /* \"#utility.yul\":8919:8921   */\n      0x20\n        /* \"#utility.yul\":8908:8917   */\n      dup3\n        /* \"#utility.yul\":8904:8922   */\n      add\n        /* \"#utility.yul\":8896:8922   */\n      swap1\n      pop\n        /* \"#utility.yul\":8968:8977   */\n      dup2\n        /* \"#utility.yul\":8962:8966   */\n      dup2\n        /* \"#utility.yul\":8958:8978   */\n      sub\n        /* \"#utility.yul\":8954:8955   */\n      0x00\n        /* \"#utility.yul\":8943:8952   */\n      dup4\n        /* \"#utility.yul\":8939:8956   */\n      add\n        /* \"#utility.yul\":8932:8979   */\n      mstore\n        /* \"#utility.yul\":8996:9127   */\n      tag_211\n        /* \"#utility.yul\":9122:9126   */\n      dup2\n        /* \"#utility.yul\":8996:9127   */\n      tag_127\n      jump\t// in\n    tag_211:\n        /* \"#utility.yul\":8988:9127   */\n      swap1\n      pop\n        /* \"#utility.yul\":8715:9134   */\n      swap2\n      swap1\n      pop\n      jump\t// out\n        /* \"#utility.yul\":9140:9287   */\n    tag_128:\n        /* \"#utility.yul\":9241:9252   */\n      0x00\n        /* \"#utility.yul\":9278:9281   */\n      dup2\n        /* \"#utility.yul\":9263:9281   */\n      swap1\n      pop\n        /* \"#utility.yul\":9140:9287   */\n      swap3\n      swap2\n      pop\n      pop\n      jump\t// out\n        /* \"#utility.yul\":9293:9407   */\n    tag_129:\n      pop\n      jump\t// out\n        /* \"#utility.yul\":9413:9811   */\n    tag_130:\n        /* \"#utility.yul\":9572:9575   */\n      0x00\n        /* \"#utility.yul\":9593:9676   */\n      tag_215\n        /* \"#utility.yul\":9674:9675   */\n      0x00\n        /* \"#utility.yul\":9669:9672   */\n      dup4\n        /* \"#utility.yul\":9593:9676   */\n      tag_128\n      jump\t// in\n    tag_215:\n        /* \"#utility.yul\":9586:9676   */\n      swap2\n      pop\n        /* \"#utility.yul\":9685:9778   */\n      tag_216\n        /* \"#utility.yul\":9774:9777   */\n      dup3\n        /* \"#utility.yul\":9685:9778   */\n      tag_129\n      jump\t// in\n    tag_216:\n        /* \"#utility.yul\":9803:9804   */\n      0x00\n        /* \"#utility.yul\":9798:9801   */\n      dup3\n        /* \"#utility.yul\":9794:9805   */\n      add\n        /* \"#utility.yul\":9787:9805   */\n      swap1\n      pop\n        /* \"#utility.yul\":9413:9811   */\n      swap2\n      swap1\n      pop\n      jump\t// out\n        /* \"#utility.yul\":9817:10196   */\n    tag_80:\n        /* \"#utility.yul\":10001:10004   */\n      0x00\n        /* \"#utility.yul\":10023:10170   */\n      tag_218\n        /* \"#utility.yul\":10166:10169   */\n      dup3\n        /* \"#utility.yul\":10023:10170   */\n      tag_130\n      jump\t// in\n    tag_218:\n        /* \"#utility.yul\":10016:10170   */\n      swap2\n      pop\n        /* \"#utility.yul\":10187:10190   */\n      dup2\n        /* \"#utility.yul\":10180:10190   */\n      swap1\n      pop\n        /* \"#utility.yul\":9817:10196   */\n      swap2\n      swap1\n      pop\n      jump\t// out\n        /* \"#utility.yul\":10202:10380   */\n    tag_131:\n        /* \"#utility.yul\":10342:10372   */\n      0x5472616e73616374696f6e20457865637574696f6e206661696c656400000000\n        /* \"#utility.yul\":10338:10339   */\n      0x00\n        /* \"#utility.yul\":10330:10336   */\n      dup3\n        /* \"#utility.yul\":10326:10340   */\n      add\n        /* \"#utility.yul\":10319:10373   */\n      mstore\n        /* \"#utility.yul\":10202:10380   */\n      pop\n      jump\t// out\n        /* \"#utility.yul\":10386:10752   */\n    tag_132:\n        /* \"#utility.yul\":10528:10531   */\n      0x00\n        /* \"#utility.yul\":10549:10616   */\n      tag_221\n        /* \"#utility.yul\":10613:10615   */\n      0x1c\n        /* \"#utility.yul\":10608:10611   */\n      dup4\n        /* \"#utility.yul\":10549:10616   */\n      tag_117\n      jump\t// in\n    tag_221:\n        /* \"#utility.yul\":10542:10616   */\n      swap2\n      pop\n        /* \"#utility.yul\":10625:10718   */\n      tag_222\n        /* \"#utility.yul\":10714:10717   */\n      dup3\n        /* \"#utility.yul\":10625:10718   */\n      tag_131\n      jump\t// in\n    tag_222:\n        /* \"#utility.yul\":10743:10745   */\n      0x20\n        /* \"#utility.yul\":10738:10741   */\n      dup3\n        /* \"#utility.yul\":10734:10746   */\n      add\n        /* \"#utility.yul\":10727:10746   */\n      swap1\n      pop\n        /* \"#utility.yul\":10386:10752   */\n      swap2\n      swap1\n      pop\n      jump\t// out\n        /* \"#utility.yul\":10758:11177   */\n    tag_86:\n        /* \"#utility.yul\":10924:10928   */\n      0x00\n        /* \"#utility.yul\":10962:10964   */\n      0x20\n        /* \"#utility.yul\":10951:10960   */\n      dup3\n        /* \"#utility.yul\":10947:10965   */\n      add\n        /* \"#utility.yul\":10939:10965   */\n      swap1\n      pop\n        /* \"#utility.yul\":11011:11020   */\n      dup2\n        /* \"#utility.yul\":11005:11009   */\n      dup2\n        /* \"#utility.yul\":11001:11021   */\n      sub\n        /* \"#utility.yul\":10997:10998   */\n      0x00\n        /* \"#utility.yul\":10986:10995   */\n      dup4\n        /* \"#utility.yul\":10982:10999   */\n      add\n        /* \"#utility.yul\":10975:11022   */\n      mstore\n        /* \"#utility.yul\":11039:11170   */\n      tag_224\n        /* \"#utility.yul\":11165:11169   */\n      dup2\n        /* \"#utility.yul\":11039:11170   */\n      tag_132\n      jump\t// in\n    tag_224:\n        /* \"#utility.yul\":11031:11170   */\n      swap1\n      pop\n        /* \"#utility.yul\":10758:11177   */\n      swap2\n      swap1\n      pop\n      jump\t// out\n        /* \"#utility.yul\":11183:11363   */\n    tag_133:\n        /* \"#utility.yul\":11231:11308   */\n      0x4e487b7100000000000000000000000000000000000000000000000000000000\n        /* \"#utility.yul\":11228:11229   */\n      0x00\n        /* \"#utility.yul\":11221:11309   */\n      mstore\n        /* \"#utility.yul\":11328:11332   */\n      0x11\n        /* \"#utility.yul\":11325:11326   */\n      0x04\n        /* \"#utility.yul\":11318:11333   */\n      mstore\n        /* \"#utility.yul\":11352:11356   */\n      0x24\n        /* \"#utility.yul\":11349:11350   */\n      0x00\n        /* \"#utility.yul\":11342:11357   */\n      revert\n        /* \"#utility.yul\":11369:11602   */\n    tag_102:\n        /* \"#utility.yul\":11408:11411   */\n      0x00\n        /* \"#utility.yul\":11431:11455   */\n      tag_227\n        /* \"#utility.yul\":11449:11454   */\n      dup3\n        /* \"#utility.yul\":11431:11455   */\n      tag_106\n      jump\t// in\n    tag_227:\n        /* \"#utility.yul\":11422:11455   */\n      swap2\n      pop\n        /* \"#utility.yul\":11477:11543   */\n      0xffffffffffffffffffffffffffffffffffffffffffffffffffffffffffffffff\n        /* \"#utility.yul\":11470:11475   */\n      dup3\n        /* \"#utility.yul\":11467:11544   */\n      sub\n        /* \"#utility.yul\":11464:11567   */\n      tag_228\n      jumpi\n        /* \"#utility.yul\":11547:11565   */\n      tag_229\n      tag_133\n      jump\t// in\n    tag_229:\n        /* \"#utility.yul\":11464:11567   */\n    tag_228:\n        /* \"#utility.yul\":11594:11595   */\n      0x01\n        /* \"#utility.yul\":11587:11592   */\n      dup3\n        /* \"#utility.yul\":11583:11596   */\n      add\n        /* \"#utility.yul\":11576:11596   */\n      swap1\n      pop\n        /* \"#utility.yul\":11369:11602   */\n      swap2\n      swap1\n      pop\n      jump\t// out\n\n    auxdata: 0xa2646970667358221220a081c2343f2d49cc86d7db9198debbffe3ed39fe07487067b56fe59dc9b41c0b64736f6c63430008180033\n}\n",
				"bytecode": {
					"linkReferences": {},
					"object": "608060405234801562000010575f80fd5b50604051620014ba380380620014ba83398181016040528101906200003691906200041c565b60018251116200007d576040517f08c379a0000000000000000000000000000000000000000000000000000000008152600401620000749062000504565b60405180910390fd5b5f81118015620000905750815160015411155b620000d2576040517f08c379a0000000000000000000000000000000000000000000000000000000008152600401620000c99062000598565b60405180910390fd5b5f5b8251811015620001f6575f73ffffffffffffffffffffffffffffffffffffffff168382815181106200010b576200010a620005b8565b5b602002602001015173ffffffffffffffffffffffffffffffffffffffff16036200016c576040517f08c379a0000000000000000000000000000000000000000000000000000000008152600401620001639062000633565b60405180910390fd5b5f838281518110620001835762000182620005b8565b5b6020026020010151908060018154018082558091505060019003905f5260205f20015f9091909190916101000a81548173ffffffffffffffffffffffffffffffffffffffff021916908373ffffffffffffffffffffffffffffffffffffffff1602179055508080600101915050620000d4565b5080600181905550505062000653565b5f604051905090565b5f80fd5b5f80fd5b5f80fd5b5f601f19601f8301169050919050565b7f4e487b71000000000000000000000000000000000000000000000000000000005f52604160045260245ffd5b62000263826200021b565b810181811067ffffffffffffffff821117156200028557620002846200022b565b5b80604052505050565b5f6200029962000206565b9050620002a7828262000258565b919050565b5f67ffffffffffffffff821115620002c957620002c86200022b565b5b602082029050602081019050919050565b5f80fd5b5f73ffffffffffffffffffffffffffffffffffffffff82169050919050565b5f6200030982620002de565b9050919050565b6200031b81620002fd565b811462000326575f80fd5b50565b5f81519050620003398162000310565b92915050565b5f620003556200034f84620002ac565b6200028e565b905080838252602082019050602084028301858111156200037b576200037a620002da565b5b835b81811015620003a8578062000393888262000329565b8452602084019350506020810190506200037d565b5050509392505050565b5f82601f830112620003c957620003c862000217565b5b8151620003db8482602086016200033f565b91505092915050565b5f819050919050565b620003f881620003e4565b811462000403575f80fd5b50565b5f815190506200041681620003ed565b92915050565b5f80604083850312156200043557620004346200020f565b5b5f83015167ffffffffffffffff81111562000455576200045462000213565b5b6200046385828601620003b2565b9250506020620004768582860162000406565b9150509250929050565b5f82825260208201905092915050565b7f4e756d626572206f66206f776e6572206d757374206265206d6f7265207468615f8201527f6e20310000000000000000000000000000000000000000000000000000000000602082015250565b5f620004ec60238362000480565b9150620004f98262000490565b604082019050919050565b5f6020820190508181035f8301526200051d81620004de565b9050919050565b7f4e756d626572206f6620636f6e6669726d6174696f6e20617265206e6f7420695f8201527f6e2073696e63207769746820746865206e756d626572206f66206f776e657273602082015250565b5f6200058060408362000480565b91506200058d8262000524565b604082019050919050565b5f6020820190508181035f830152620005b18162000572565b9050919050565b7f4e487b71000000000000000000000000000000000000000000000000000000005f52603260045260245ffd5b7f496e76616c6964204f776e6572206164647265737300000000000000000000005f82015250565b5f6200061b60158362000480565b91506200062882620005e5565b602082019050919050565b5f6020820190508181035f8301526200064c816200060d565b9050919050565b610e5980620006615f395ff3fe608060405260043610610054575f3560e01c8063025e7c271461005857806366d651db146100945780639ace38c2146100b05780639b6a34d3146100ee578063c01a8c8414610118578063ee22610b14610140575b5f80fd5b348015610063575f80fd5b5061007e600480360381019061007991906108e3565b61015c565b60405161008b919061094d565b60405180910390f35b6100ae60048036038101906100a99190610990565b610196565b005b3480156100bb575f80fd5b506100d660048036038101906100d191906108e3565b61035a565b6040516100e5939291906109e4565b60405180910390f35b3480156100f9575f80fd5b506101026103ba565b60405161010f9190610a19565b60405180910390f35b348015610123575f80fd5b5061013e600480360381019061013991906108e3565b6103c0565b005b61015a600480360381019061015591906108e3565b610556565b005b5f818154811061016a575f80fd5b905f5260205f20015f915054906101000a900473ffffffffffffffffffffffffffffffffffffffff1681565b5f73ffffffffffffffffffffffffffffffffffffffff168173ffffffffffffffffffffffffffffffffffffffff1603610204576040517f08c379a00000000000000000000000000000000000000000000000000000000081526004016101fb90610a8c565b60405180910390fd5b5f3411610246576040517f08c379a000000000000000000000000000000000000000000000000000000000815260040161023d90610b1a565b60405180910390fd5b5f6003805490509050600360405180606001604052808473ffffffffffffffffffffffffffffffffffffffff1681526020013481526020015f1515815250908060018154018082558091505060019003905f5260205f2090600302015f909190919091505f820151815f015f6101000a81548173ffffffffffffffffffffffffffffffffffffffff021916908373ffffffffffffffffffffffffffffffffffffffff160217905550602082015181600101556040820151816002015f6101000a81548160ff02191690831515021790555050507f753dcda37efe0bc3675e04e24d1fb08b70681f14675eed4b6e7978495caf2ca08133843460405161034e9493929190610b38565b60405180910390a15050565b60038181548110610369575f80fd5b905f5260205f2090600302015f91509050805f015f9054906101000a900473ffffffffffffffffffffffffffffffffffffffff1690806001015490806002015f9054906101000a900460ff16905083565b60015481565b6003805490508110610407576040517f08c379a00000000000000000000000000000000000000000000000000000000081526004016103fe90610bc5565b60405180910390fd5b60025f8281526020019081526020015f205f3373ffffffffffffffffffffffffffffffffffffffff1673ffffffffffffffffffffffffffffffffffffffff1681526020019081526020015f205f9054906101000a900460ff16156104a0576040517f08c379a000000000000000000000000000000000000000000000000000000000815260040161049790610c53565b60405180910390fd5b600160025f8381526020019081526020015f205f3373ffffffffffffffffffffffffffffffffffffffff1673ffffffffffffffffffffffffffffffffffffffff1681526020019081526020015f205f6101000a81548160ff0219169083151502179055507fef524c298d730e7d5714dbe2fce9d4eca7de755a12628704719170afda39678b816040516105339190610a19565b60405180910390a16105448161078f565b156105535761055281610556565b5b50565b600380549050811061059d576040517f08c379a000000000000000000000000000000000000000000000000000000000815260040161059490610bc5565b60405180910390fd5b600381815481106105b1576105b0610c71565b5b905f5260205f2090600302016002015f9054906101000a900460ff161561060d576040517f08c379a000000000000000000000000000000000000000000000000000000000815260040161060490610ce8565b60405180910390fd5b5f6003828154811061062257610621610c71565b5b905f5260205f2090600302015f015f9054906101000a900473ffffffffffffffffffffffffffffffffffffffff1673ffffffffffffffffffffffffffffffffffffffff166003838154811061067a57610679610c71565b5b905f5260205f2090600302016001015460405161069690610d33565b5f6040518083038185875af1925050503d805f81146106d0576040519150601f19603f3d011682016040523d82523d5f602084013e6106d5565b606091505b5050905080610719576040517f08c379a000000000000000000000000000000000000000000000000000000000815260040161071090610d91565b60405180910390fd5b60016003838154811061072f5761072e610c71565b5b905f5260205f2090600302016002015f6101000a81548160ff0219169083151502179055507f15ed165a284872ea7017f03df402a0cadfbfab588320ffaf83f160c2f82781c7826040516107839190610a19565b60405180910390a15050565b5f60038054905082106107d7576040517f08c379a00000000000000000000000000000000000000000000000000000000081526004016107ce90610bc5565b60405180910390fd5b5f805f90505b5f8054905081101561089d5760025f8581526020019081526020015f205f80838154811061080e5761080d610c71565b5b905f5260205f20015f9054906101000a900473ffffffffffffffffffffffffffffffffffffffff1673ffffffffffffffffffffffffffffffffffffffff1673ffffffffffffffffffffffffffffffffffffffff1681526020019081526020015f205f9054906101000a900460ff161561089057818061088c90610ddc565b9250505b80806001019150506107dd565b50600154811015915050919050565b5f80fd5b5f819050919050565b6108c2816108b0565b81146108cc575f80fd5b50565b5f813590506108dd816108b9565b92915050565b5f602082840312156108f8576108f76108ac565b5b5f610905848285016108cf565b91505092915050565b5f73ffffffffffffffffffffffffffffffffffffffff82169050919050565b5f6109378261090e565b9050919050565b6109478161092d565b82525050565b5f6020820190506109605f83018461093e565b92915050565b61096f8161092d565b8114610979575f80fd5b50565b5f8135905061098a81610966565b92915050565b5f602082840312156109a5576109a46108ac565b5b5f6109b28482850161097c565b91505092915050565b6109c4816108b0565b82525050565b5f8115159050919050565b6109de816109ca565b82525050565b5f6060820190506109f75f83018661093e565b610a0460208301856109bb565b610a1160408301846109d5565b949350505050565b5f602082019050610a2c5f8301846109bb565b92915050565b5f82825260208201905092915050565b7f496e76616c6964205265636569766572277320416464726573730000000000005f82015250565b5f610a76601a83610a32565b9150610a8182610a42565b602082019050919050565b5f6020820190508181035f830152610aa381610a6a565b9050919050565b7f205472616e7366657220616d6f756e74206d75737420626520677265617465725f8201527f207468616e203000000000000000000000000000000000000000000000000000602082015250565b5f610b04602783610a32565b9150610b0f82610aaa565b604082019050919050565b5f6020820190508181035f830152610b3181610af8565b9050919050565b5f608082019050610b4b5f8301876109bb565b610b58602083018661093e565b610b65604083018561093e565b610b7260608301846109bb565b95945050505050565b7f496e76616c6964207472616e73616374696f6e204964000000000000000000005f82015250565b5f610baf601683610a32565b9150610bba82610b7b565b602082019050919050565b5f6020820190508181035f830152610bdc81610ba3565b9050919050565b7f7472616e73616374696f6e20697320616c726561647920636f6e6669726d65645f8201527f20627920746865204f776e657200000000000000000000000000000000000000602082015250565b5f610c3d602d83610a32565b9150610c4882610be3565b604082019050919050565b5f6020820190508181035f830152610c6a81610c31565b9050919050565b7f4e487b71000000000000000000000000000000000000000000000000000000005f52603260045260245ffd5b7f5472616e73616374696f6e20697320616c7265616479206578656375746564005f82015250565b5f610cd2601f83610a32565b9150610cdd82610c9e565b602082019050919050565b5f6020820190508181035f830152610cff81610cc6565b9050919050565b5f81905092915050565b50565b5f610d1e5f83610d06565b9150610d2982610d10565b5f82019050919050565b5f610d3d82610d13565b9150819050919050565b7f5472616e73616374696f6e20457865637574696f6e206661696c6564000000005f82015250565b5f610d7b601c83610a32565b9150610d8682610d47565b602082019050919050565b5f6020820190508181035f830152610da881610d6f565b9050919050565b7f4e487b71000000000000000000000000000000000000000000000000000000005f52601160045260245ffd5b5f610de6826108b0565b91507fffffffffffffffffffffffffffffffffffffffffffffffffffffffffffffffff8203610e1857610e17610daf565b5b60018201905091905056fea2646970667358221220a081c2343f2d49cc86d7db9198debbffe3ed39fe07487067b56fe59dc9b41c0b64736f6c63430008180033",
					"opcodes": "PUSH1 0x80 PUSH1 0x40 MSTORE CALLVALUE DUP1 ISZERO PUSH3 0x10 JUMPI PUSH0 DUP1 REVERT JUMPDEST POP PUSH1 0x40 MLOAD PUSH3 0x14BA CODESIZE SUB DUP1 PUSH3 0x14BA DUP4 CODECOPY DUP2 DUP2 ADD PUSH1 0x40 MSTORE DUP2 ADD SWAP1 PUSH3 0x36 SWAP2 SWAP1 PUSH3 0x41C JUMP JUMPDEST PUSH1 0x1 DUP3 MLOAD GT PUSH3 0x7D JUMPI PUSH1 0x40 MLOAD PUSH32 0x8C379A000000000000000000000000000000000000000000000000000000000 DUP2 MSTORE PUSH1 0x4 ADD PUSH3 0x74 SWAP1 PUSH3 0x504 JUMP JUMPDEST PUSH1 0x40 MLOAD DUP1 SWAP2 SUB SWAP1 REVERT JUMPDEST PUSH0 DUP2 GT DUP1 ISZERO PUSH3 0x90 JUMPI POP DUP2 MLOAD PUSH1 0x1 SLOAD GT ISZERO JUMPDEST PUSH3 0xD2 JUMPI PUSH1 0x40 MLOAD PUSH32 0x8C379A000000000000000000000000000000000000000000000000000000000 DUP2 MSTORE PUSH1 0x4 ADD PUSH3 0xC9 SWAP1 PUSH3 0x598 JUMP JUMPDEST PUSH1 0x40 MLOAD DUP1 SWAP2 SUB SWAP1 REVERT JUMPDEST PUSH0 JUMPDEST DUP3 MLOAD DUP2 LT ISZERO PUSH3 0x1F6 JUMPI PUSH0 PUSH20 0xFFFFFFFFFFFFFFFFFFFFFFFFFFFFFFFFFFFFFFFF AND DUP4 DUP3 DUP2 MLOAD DUP2 LT PUSH3 0x10B JUMPI PUSH3 0x10A PUSH3 0x5B8 JUMP JUMPDEST JUMPDEST PUSH1 0x20 MUL PUSH1 0x20 ADD ADD MLOAD PUSH20 0xFFFFFFFFFFFFFFFFFFFFFFFFFFFFFFFFFFFFFFFF AND SUB PUSH3 0x16C JUMPI PUSH1 0x40 MLOAD PUSH32 0x8C379A000000000000000000000000000000000000000000000000000000000 DUP2 MSTORE PUSH1 0x4 ADD PUSH3 0x163 SWAP1 PUSH3 0x633 JUMP JUMPDEST PUSH1 0x40 MLOAD DUP1 SWAP2 SUB SWAP1 REVERT JUMPDEST PUSH0 DUP4 DUP3 DUP2 MLOAD DUP2 LT PUSH3 0x183 JUMPI PUSH3 0x182 PUSH3 0x5B8 JUMP JUMPDEST JUMPDEST PUSH1 0x20 MUL PUSH1 0x20 ADD ADD MLOAD SWAP1 DUP1 PUSH1 0x1 DUP2 SLOAD ADD DUP1 DUP3 SSTORE DUP1 SWAP2 POP POP PUSH1 0x1 SWAP1 SUB SWAP1 PUSH0 MSTORE PUSH1 0x20 PUSH0 KECCAK256 ADD PUSH0 SWAP1 SWAP2 SWAP1 SWAP2 SWAP1 SWAP2 PUSH2 0x100 EXP DUP2 SLOAD DUP2 PUSH20 0xFFFFFFFFFFFFFFFFFFFFFFFFFFFFFFFFFFFFFFFF MUL NOT AND SWAP1 DUP4 PUSH20 0xFFFFFFFFFFFFFFFFFFFFFFFFFFFFFFFFFFFFFFFF AND MUL OR SWAP1 SSTORE POP DUP1 DUP1 PUSH1 0x1 ADD SWAP2 POP POP PUSH3 0xD4 JUMP JUMPDEST POP DUP1 PUSH1 0x1 DUP2 SWAP1 SSTORE POP POP POP PUSH3 0x653 JUMP JUMPDEST PUSH0 PUSH1 0x40 MLOAD SWAP1 POP SWAP1 JUMP JUMPDEST PUSH0 DUP1 REVERT JUMPDEST PUSH0 DUP1 REVERT JUMPDEST PUSH0 DUP1 REVERT JUMPDEST PUSH0 PUSH1 0x1F NOT PUSH1 0x1F DUP4 ADD AND SWAP1 POP SWAP2 SWAP1 POP JUMP JUMPDEST PUSH32 0x4E487B7100000000000000000000000000000000000000000000000000000000 PUSH0 MSTORE PUSH1 0x41 PUSH1 0x4 MSTORE PUSH1 0x24 PUSH0 REVERT JUMPDEST PUSH3 0x263 DUP3 PUSH3 0x21B JUMP JUMPDEST DUP2 ADD DUP2 DUP2 LT PUSH8 0xFFFFFFFFFFFFFFFF DUP3 GT OR ISZERO PUSH3 0x285 JUMPI PUSH3 0x284 PUSH3 0x22B JUMP JUMPDEST JUMPDEST DUP1 PUSH1 0x40 MSTORE POP POP POP JUMP JUMPDEST PUSH0 PUSH3 0x299 PUSH3 0x206 JUMP JUMPDEST SWAP1 POP PUSH3 0x2A7 DUP3 DUP3 PUSH3 0x258 JUMP JUMPDEST SWAP2 SWAP1 POP JUMP JUMPDEST PUSH0 PUSH8 0xFFFFFFFFFFFFFFFF DUP3 GT ISZERO PUSH3 0x2C9 JUMPI PUSH3 0x2C8 PUSH3 0x22B JUMP JUMPDEST JUMPDEST PUSH1 0x20 DUP3 MUL SWAP1 POP PUSH1 0x20 DUP2 ADD SWAP1 POP SWAP2 SWAP1 POP JUMP JUMPDEST PUSH0 DUP1 REVERT JUMPDEST PUSH0 PUSH20 0xFFFFFFFFFFFFFFFFFFFFFFFFFFFFFFFFFFFFFFFF DUP3 AND SWAP1 POP SWAP2 SWAP1 POP JUMP JUMPDEST PUSH0 PUSH3 0x309 DUP3 PUSH3 0x2DE JUMP JUMPDEST SWAP1 POP SWAP2 SWAP1 POP JUMP JUMPDEST PUSH3 0x31B DUP2 PUSH3 0x2FD JUMP JUMPDEST DUP2 EQ PUSH3 0x326 JUMPI PUSH0 DUP1 REVERT JUMPDEST POP JUMP JUMPDEST PUSH0 DUP2 MLOAD SWAP1 POP PUSH3 0x339 DUP2 PUSH3 0x310 JUMP JUMPDEST SWAP3 SWAP2 POP POP JUMP JUMPDEST PUSH0 PUSH3 0x355 PUSH3 0x34F DUP5 PUSH3 0x2AC JUMP JUMPDEST PUSH3 0x28E JUMP JUMPDEST SWAP1 POP DUP1 DUP4 DUP3 MSTORE PUSH1 0x20 DUP3 ADD SWAP1 POP PUSH1 0x20 DUP5 MUL DUP4 ADD DUP6 DUP2 GT ISZERO PUSH3 0x37B JUMPI PUSH3 0x37A PUSH3 0x2DA JUMP JUMPDEST JUMPDEST DUP4 JUMPDEST DUP2 DUP2 LT ISZERO PUSH3 0x3A8 JUMPI DUP1 PUSH3 0x393 DUP9 DUP3 PUSH3 0x329 JUMP JUMPDEST DUP5 MSTORE PUSH1 0x20 DUP5 ADD SWAP4 POP POP PUSH1 0x20 DUP2 ADD SWAP1 POP PUSH3 0x37D JUMP JUMPDEST POP POP POP SWAP4 SWAP3 POP POP POP JUMP JUMPDEST PUSH0 DUP3 PUSH1 0x1F DUP4 ADD SLT PUSH3 0x3C9 JUMPI PUSH3 0x3C8 PUSH3 0x217 JUMP JUMPDEST JUMPDEST DUP2 MLOAD PUSH3 0x3DB DUP5 DUP3 PUSH1 0x20 DUP7 ADD PUSH3 0x33F JUMP JUMPDEST SWAP2 POP POP SWAP3 SWAP2 POP POP JUMP JUMPDEST PUSH0 DUP2 SWAP1 POP SWAP2 SWAP1 POP JUMP JUMPDEST PUSH3 0x3F8 DUP2 PUSH3 0x3E4 JUMP JUMPDEST DUP2 EQ PUSH3 0x403 JUMPI PUSH0 DUP1 REVERT JUMPDEST POP JUMP JUMPDEST PUSH0 DUP2 MLOAD SWAP1 POP PUSH3 0x416 DUP2 PUSH3 0x3ED JUMP JUMPDEST SWAP3 SWAP2 POP POP JUMP JUMPDEST PUSH0 DUP1 PUSH1 0x40 DUP4 DUP6 SUB SLT ISZERO PUSH3 0x435 JUMPI PUSH3 0x434 PUSH3 0x20F JUMP JUMPDEST JUMPDEST PUSH0 DUP4 ADD MLOAD PUSH8 0xFFFFFFFFFFFFFFFF DUP2 GT ISZERO PUSH3 0x455 JUMPI PUSH3 0x454 PUSH3 0x213 JUMP JUMPDEST JUMPDEST PUSH3 0x463 DUP6 DUP3 DUP7 ADD PUSH3 0x3B2 JUMP JUMPDEST SWAP3 POP POP PUSH1 0x20 PUSH3 0x476 DUP6 DUP3 DUP7 ADD PUSH3 0x406 JUMP JUMPDEST SWAP2 POP POP SWAP3 POP SWAP3 SWAP1 POP JUMP JUMPDEST PUSH0 DUP3 DUP3 MSTORE PUSH1 0x20 DUP3 ADD SWAP1 POP SWAP3 SWAP2 POP POP JUMP JUMPDEST PUSH32 0x4E756D626572206F66206F776E6572206D757374206265206D6F726520746861 PUSH0 DUP3 ADD MSTORE PUSH32 0x6E20310000000000000000000000000000000000000000000000000000000000 PUSH1 0x20 DUP3 ADD MSTORE POP JUMP JUMPDEST PUSH0 PUSH3 0x4EC PUSH1 0x23 DUP4 PUSH3 0x480 JUMP JUMPDEST SWAP2 POP PUSH3 0x4F9 DUP3 PUSH3 0x490 JUMP JUMPDEST PUSH1 0x40 DUP3 ADD SWAP1 POP SWAP2 SWAP1 POP JUMP JUMPDEST PUSH0 PUSH1 0x20 DUP3 ADD SWAP1 POP DUP2 DUP2 SUB PUSH0 DUP4 ADD MSTORE PUSH3 0x51D DUP2 PUSH3 0x4DE JUMP JUMPDEST SWAP1 POP SWAP2 SWAP1 POP JUMP JUMPDEST PUSH32 0x4E756D626572206F6620636F6E6669726D6174696F6E20617265206E6F742069 PUSH0 DUP3 ADD MSTORE PUSH32 0x6E2073696E63207769746820746865206E756D626572206F66206F776E657273 PUSH1 0x20 DUP3 ADD MSTORE POP JUMP JUMPDEST PUSH0 PUSH3 0x580 PUSH1 0x40 DUP4 PUSH3 0x480 JUMP JUMPDEST SWAP2 POP PUSH3 0x58D DUP3 PUSH3 0x524 JUMP JUMPDEST PUSH1 0x40 DUP3 ADD SWAP1 POP SWAP2 SWAP1 POP JUMP JUMPDEST PUSH0 PUSH1 0x20 DUP3 ADD SWAP1 POP DUP2 DUP2 SUB PUSH0 DUP4 ADD MSTORE PUSH3 0x5B1 DUP2 PUSH3 0x572 JUMP JUMPDEST SWAP1 POP SWAP2 SWAP1 POP JUMP JUMPDEST PUSH32 0x4E487B7100000000000000000000000000000000000000000000000000000000 PUSH0 MSTORE PUSH1 0x32 PUSH1 0x4 MSTORE PUSH1 0x24 PUSH0 REVERT JUMPDEST PUSH32 0x496E76616C6964204F776E657220616464726573730000000000000000000000 PUSH0 DUP3 ADD MSTORE POP JUMP JUMPDEST PUSH0 PUSH3 0x61B PUSH1 0x15 DUP4 PUSH3 0x480 JUMP JUMPDEST SWAP2 POP PUSH3 0x628 DUP3 PUSH3 0x5E5 JUMP JUMPDEST PUSH1 0x20 DUP3 ADD SWAP1 POP SWAP2 SWAP1 POP JUMP JUMPDEST PUSH0 PUSH1 0x20 DUP3 ADD SWAP1 POP DUP2 DUP2 SUB PUSH0 DUP4 ADD MSTORE PUSH3 0x64C DUP2 PUSH3 0x60D JUMP JUMPDEST SWAP1 POP SWAP2 SWAP1 POP JUMP JUMPDEST PUSH2 0xE59 DUP1 PUSH3 0x661 PUSH0 CODECOPY PUSH0 RETURN INVALID PUSH1 0x80 PUSH1 0x40 MSTORE PUSH1 0x4 CALLDATASIZE LT PUSH2 0x54 JUMPI PUSH0 CALLDATALOAD PUSH1 0xE0 SHR DUP1 PUSH4 0x25E7C27 EQ PUSH2 0x58 JUMPI DUP1 PUSH4 0x66D651DB EQ PUSH2 0x94 JUMPI DUP1 PUSH4 0x9ACE38C2 EQ PUSH2 0xB0 JUMPI DUP1 PUSH4 0x9B6A34D3 EQ PUSH2 0xEE JUMPI DUP1 PUSH4 0xC01A8C84 EQ PUSH2 0x118 JUMPI DUP1 PUSH4 0xEE22610B EQ PUSH2 0x140 JUMPI JUMPDEST PUSH0 DUP1 REVERT JUMPDEST CALLVALUE DUP1 ISZERO PUSH2 0x63 JUMPI PUSH0 DUP1 REVERT JUMPDEST POP PUSH2 0x7E PUSH1 0x4 DUP1 CALLDATASIZE SUB DUP2 ADD SWAP1 PUSH2 0x79 SWAP2 SWAP1 PUSH2 0x8E3 JUMP JUMPDEST PUSH2 0x15C JUMP JUMPDEST PUSH1 0x40 MLOAD PUSH2 0x8B SWAP2 SWAP1 PUSH2 0x94D JUMP JUMPDEST PUSH1 0x40 MLOAD DUP1 SWAP2 SUB SWAP1 RETURN JUMPDEST PUSH2 0xAE PUSH1 0x4 DUP1 CALLDATASIZE SUB DUP2 ADD SWAP1 PUSH2 0xA9 SWAP2 SWAP1 PUSH2 0x990 JUMP JUMPDEST PUSH2 0x196 JUMP JUMPDEST STOP JUMPDEST CALLVALUE DUP1 ISZERO PUSH2 0xBB JUMPI PUSH0 DUP1 REVERT JUMPDEST POP PUSH2 0xD6 PUSH1 0x4 DUP1 CALLDATASIZE SUB DUP2 ADD SWAP1 PUSH2 0xD1 SWAP2 SWAP1 PUSH2 0x8E3 JUMP JUMPDEST PUSH2 0x35A JUMP JUMPDEST PUSH1 0x40 MLOAD PUSH2 0xE5 SWAP4 SWAP3 SWAP2 SWAP1 PUSH2 0x9E4 JUMP JUMPDEST PUSH1 0x40 MLOAD DUP1 SWAP2 SUB SWAP1 RETURN JUMPDEST CALLVALUE DUP1 ISZERO PUSH2 0xF9 JUMPI PUSH0 DUP1 REVERT JUMPDEST POP PUSH2 0x102 PUSH2 0x3BA JUMP JUMPDEST PUSH1 0x40 MLOAD PUSH2 0x10F SWAP2 SWAP1 PUSH2 0xA19 JUMP JUMPDEST PUSH1 0x40 MLOAD DUP1 SWAP2 SUB SWAP1 RETURN JUMPDEST CALLVALUE DUP1 ISZERO PUSH2 0x123 JUMPI PUSH0 DUP1 REVERT JUMPDEST POP PUSH2 0x13E PUSH1 0x4 DUP1 CALLDATASIZE SUB DUP2 ADD SWAP1 PUSH2 0x139 SWAP2 SWAP1 PUSH2 0x8E3 JUMP JUMPDEST PUSH2 0x3C0 JUMP JUMPDEST STOP JUMPDEST PUSH2 0x15A PUSH1 0x4 DUP1 CALLDATASIZE SUB DUP2 ADD SWAP1 PUSH2 0x155 SWAP2 SWAP1 PUSH2 0x8E3 JUMP JUMPDEST PUSH2 0x556 JUMP JUMPDEST STOP JUMPDEST PUSH0 DUP2 DUP2 SLOAD DUP2 LT PUSH2 0x16A JUMPI PUSH0 DUP1 REVERT JUMPDEST SWAP1 PUSH0 MSTORE PUSH1 0x20 PUSH0 KECCAK256 ADD PUSH0 SWAP2 POP SLOAD SWAP1 PUSH2 0x100 EXP SWAP1 DIV PUSH20 0xFFFFFFFFFFFFFFFFFFFFFFFFFFFFFFFFFFFFFFFF AND DUP2 JUMP JUMPDEST PUSH0 PUSH20 0xFFFFFFFFFFFFFFFFFFFFFFFFFFFFFFFFFFFFFFFF AND DUP2 PUSH20 0xFFFFFFFFFFFFFFFFFFFFFFFFFFFFFFFFFFFFFFFF AND SUB PUSH2 0x204 JUMPI PUSH1 0x40 MLOAD PUSH32 0x8C379A000000000000000000000000000000000000000000000000000000000 DUP2 MSTORE PUSH1 0x4 ADD PUSH2 0x1FB SWAP1 PUSH2 0xA8C JUMP JUMPDEST PUSH1 0x40 MLOAD DUP1 SWAP2 SUB SWAP1 REVERT JUMPDEST PUSH0 CALLVALUE GT PUSH2 0x246 JUMPI PUSH1 0x40 MLOAD PUSH32 0x8C379A000000000000000000000000000000000000000000000000000000000 DUP2 MSTORE PUSH1 0x4 ADD PUSH2 0x23D SWAP1 PUSH2 0xB1A JUMP JUMPDEST PUSH1 0x40 MLOAD DUP1 SWAP2 SUB SWAP1 REVERT JUMPDEST PUSH0 PUSH1 0x3 DUP1 SLOAD SWAP1 POP SWAP1 POP PUSH1 0x3 PUSH1 0x40 MLOAD DUP1 PUSH1 0x60 ADD PUSH1 0x40 MSTORE DUP1 DUP5 PUSH20 0xFFFFFFFFFFFFFFFFFFFFFFFFFFFFFFFFFFFFFFFF AND DUP2 MSTORE PUSH1 0x20 ADD CALLVALUE DUP2 MSTORE PUSH1 0x20 ADD PUSH0 ISZERO ISZERO DUP2 MSTORE POP SWAP1 DUP1 PUSH1 0x1 DUP2 SLOAD ADD DUP1 DUP3 SSTORE DUP1 SWAP2 POP POP PUSH1 0x1 SWAP1 SUB SWAP1 PUSH0 MSTORE PUSH1 0x20 PUSH0 KECCAK256 SWAP1 PUSH1 0x3 MUL ADD PUSH0 SWAP1 SWAP2 SWAP1 SWAP2 SWAP1 SWAP2 POP PUSH0 DUP3 ADD MLOAD DUP2 PUSH0 ADD PUSH0 PUSH2 0x100 EXP DUP2 SLOAD DUP2 PUSH20 0xFFFFFFFFFFFFFFFFFFFFFFFFFFFFFFFFFFFFFFFF MUL NOT AND SWAP1 DUP4 PUSH20 0xFFFFFFFFFFFFFFFFFFFFFFFFFFFFFFFFFFFFFFFF AND MUL OR SWAP1 SSTORE POP PUSH1 0x20 DUP3 ADD MLOAD DUP2 PUSH1 0x1 ADD SSTORE PUSH1 0x40 DUP3 ADD MLOAD DUP2 PUSH1 0x2 ADD PUSH0 PUSH2 0x100 EXP DUP2 SLOAD DUP2 PUSH1 0xFF MUL NOT AND SWAP1 DUP4 ISZERO ISZERO MUL OR SWAP1 SSTORE POP POP POP PUSH32 0x753DCDA37EFE0BC3675E04E24D1FB08B70681F14675EED4B6E7978495CAF2CA0 DUP2 CALLER DUP5 CALLVALUE PUSH1 0x40 MLOAD PUSH2 0x34E SWAP5 SWAP4 SWAP3 SWAP2 SWAP1 PUSH2 0xB38 JUMP JUMPDEST PUSH1 0x40 MLOAD DUP1 SWAP2 SUB SWAP1 LOG1 POP POP JUMP JUMPDEST PUSH1 0x3 DUP2 DUP2 SLOAD DUP2 LT PUSH2 0x369 JUMPI PUSH0 DUP1 REVERT JUMPDEST SWAP1 PUSH0 MSTORE PUSH1 0x20 PUSH0 KECCAK256 SWAP1 PUSH1 0x3 MUL ADD PUSH0 SWAP2 POP SWAP1 POP DUP1 PUSH0 ADD PUSH0 SWAP1 SLOAD SWAP1 PUSH2 0x100 EXP SWAP1 DIV PUSH20 0xFFFFFFFFFFFFFFFFFFFFFFFFFFFFFFFFFFFFFFFF AND SWAP1 DUP1 PUSH1 0x1 ADD SLOAD SWAP1 DUP1 PUSH1 0x2 ADD PUSH0 SWAP1 SLOAD SWAP1 PUSH2 0x100 EXP SWAP1 DIV PUSH1 0xFF AND SWAP1 POP DUP4 JUMP JUMPDEST PUSH1 0x1 SLOAD DUP2 JUMP JUMPDEST PUSH1 0x3 DUP1 SLOAD SWAP1 POP DUP2 LT PUSH2 0x407 JUMPI PUSH1 0x40 MLOAD PUSH32 0x8C379A000000000000000000000000000000000000000000000000000000000 DUP2 MSTORE PUSH1 0x4 ADD PUSH2 0x3FE SWAP1 PUSH2 0xBC5 JUMP JUMPDEST PUSH1 0x40 MLOAD DUP1 SWAP2 SUB SWAP1 REVERT JUMPDEST PUSH1 0x2 PUSH0 DUP3 DUP2 MSTORE PUSH1 0x20 ADD SWAP1 DUP2 MSTORE PUSH1 0x20 ADD PUSH0 KECCAK256 PUSH0 CALLER PUSH20 0xFFFFFFFFFFFFFFFFFFFFFFFFFFFFFFFFFFFFFFFF AND PUSH20 0xFFFFFFFFFFFFFFFFFFFFFFFFFFFFFFFFFFFFFFFF AND DUP2 MSTORE PUSH1 0x20 ADD SWAP1 DUP2 MSTORE PUSH1 0x20 ADD PUSH0 KECCAK256 PUSH0 SWAP1 SLOAD SWAP1 PUSH2 0x100 EXP SWAP1 DIV PUSH1 0xFF AND ISZERO PUSH2 0x4A0 JUMPI PUSH1 0x40 MLOAD PUSH32 0x8C379A000000000000000000000000000000000000000000000000000000000 DUP2 MSTORE PUSH1 0x4 ADD PUSH2 0x497 SWAP1 PUSH2 0xC53 JUMP JUMPDEST PUSH1 0x40 MLOAD DUP1 SWAP2 SUB SWAP1 REVERT JUMPDEST PUSH1 0x1 PUSH1 0x2 PUSH0 DUP4 DUP2 MSTORE PUSH1 0x20 ADD SWAP1 DUP2 MSTORE PUSH1 0x20 ADD PUSH0 KECCAK256 PUSH0 CALLER PUSH20 0xFFFFFFFFFFFFFFFFFFFFFFFFFFFFFFFFFFFFFFFF AND PUSH20 0xFFFFFFFFFFFFFFFFFFFFFFFFFFFFFFFFFFFFFFFF AND DUP2 MSTORE PUSH1 0x20 ADD SWAP1 DUP2 MSTORE PUSH1 0x20 ADD PUSH0 KECCAK256 PUSH0 PUSH2 0x100 EXP DUP2 SLOAD DUP2 PUSH1 0xFF MUL NOT AND SWAP1 DUP4 ISZERO ISZERO MUL OR SWAP1 SSTORE POP PUSH32 0xEF524C298D730E7D5714DBE2FCE9D4ECA7DE755A12628704719170AFDA39678B DUP2 PUSH1 0x40 MLOAD PUSH2 0x533 SWAP2 SWAP1 PUSH2 0xA19 JUMP JUMPDEST PUSH1 0x40 MLOAD DUP1 SWAP2 SUB SWAP1 LOG1 PUSH2 0x544 DUP2 PUSH2 0x78F JUMP JUMPDEST ISZERO PUSH2 0x553 JUMPI PUSH2 0x552 DUP2 PUSH2 0x556 JUMP JUMPDEST JUMPDEST POP JUMP JUMPDEST PUSH1 0x3 DUP1 SLOAD SWAP1 POP DUP2 LT PUSH2 0x59D JUMPI PUSH1 0x40 MLOAD PUSH32 0x8C379A000000000000000000000000000000000000000000000000000000000 DUP2 MSTORE PUSH1 0x4 ADD PUSH2 0x594 SWAP1 PUSH2 0xBC5 JUMP JUMPDEST PUSH1 0x40 MLOAD DUP1 SWAP2 SUB SWAP1 REVERT JUMPDEST PUSH1 0x3 DUP2 DUP2 SLOAD DUP2 LT PUSH2 0x5B1 JUMPI PUSH2 0x5B0 PUSH2 0xC71 JUMP JUMPDEST JUMPDEST SWAP1 PUSH0 MSTORE PUSH1 0x20 PUSH0 KECCAK256 SWAP1 PUSH1 0x3 MUL ADD PUSH1 0x2 ADD PUSH0 SWAP1 SLOAD SWAP1 PUSH2 0x100 EXP SWAP1 DIV PUSH1 0xFF AND ISZERO PUSH2 0x60D JUMPI PUSH1 0x40 MLOAD PUSH32 0x8C379A000000000000000000000000000000000000000000000000000000000 DUP2 MSTORE PUSH1 0x4 ADD PUSH2 0x604 SWAP1 PUSH2 0xCE8 JUMP JUMPDEST PUSH1 0x40 MLOAD DUP1 SWAP2 SUB SWAP1 REVERT JUMPDEST PUSH0 PUSH1 0x3 DUP3 DUP2 SLOAD DUP2 LT PUSH2 0x622 JUMPI PUSH2 0x621 PUSH2 0xC71 JUMP JUMPDEST JUMPDEST SWAP1 PUSH0 MSTORE PUSH1 0x20 PUSH0 KECCAK256 SWAP1 PUSH1 0x3 MUL ADD PUSH0 ADD PUSH0 SWAP1 SLOAD SWAP1 PUSH2 0x100 EXP SWAP1 DIV PUSH20 0xFFFFFFFFFFFFFFFFFFFFFFFFFFFFFFFFFFFFFFFF AND PUSH20 0xFFFFFFFFFFFFFFFFFFFFFFFFFFFFFFFFFFFFFFFF AND PUSH1 0x3 DUP4 DUP2 SLOAD DUP2 LT PUSH2 0x67A JUMPI PUSH2 0x679 PUSH2 0xC71 JUMP JUMPDEST JUMPDEST SWAP1 PUSH0 MSTORE PUSH1 0x20 PUSH0 KECCAK256 SWAP1 PUSH1 0x3 MUL ADD PUSH1 0x1 ADD SLOAD PUSH1 0x40 MLOAD PUSH2 0x696 SWAP1 PUSH2 0xD33 JUMP JUMPDEST PUSH0 PUSH1 0x40 MLOAD DUP1 DUP4 SUB DUP2 DUP6 DUP8 GAS CALL SWAP3 POP POP POP RETURNDATASIZE DUP1 PUSH0 DUP2 EQ PUSH2 0x6D0 JUMPI PUSH1 0x40 MLOAD SWAP2 POP PUSH1 0x1F NOT PUSH1 0x3F RETURNDATASIZE ADD AND DUP3 ADD PUSH1 0x40 MSTORE RETURNDATASIZE DUP3 MSTORE RETURNDATASIZE PUSH0 PUSH1 0x20 DUP5 ADD RETURNDATACOPY PUSH2 0x6D5 JUMP JUMPDEST PUSH1 0x60 SWAP2 POP JUMPDEST POP POP SWAP1 POP DUP1 PUSH2 0x719 JUMPI PUSH1 0x40 MLOAD PUSH32 0x8C379A000000000000000000000000000000000000000000000000000000000 DUP2 MSTORE PUSH1 0x4 ADD PUSH2 0x710 SWAP1 PUSH2 0xD91 JUMP JUMPDEST PUSH1 0x40 MLOAD DUP1 SWAP2 SUB SWAP1 REVERT JUMPDEST PUSH1 0x1 PUSH1 0x3 DUP4 DUP2 SLOAD DUP2 LT PUSH2 0x72F JUMPI PUSH2 0x72E PUSH2 0xC71 JUMP JUMPDEST JUMPDEST SWAP1 PUSH0 MSTORE PUSH1 0x20 PUSH0 KECCAK256 SWAP1 PUSH1 0x3 MUL ADD PUSH1 0x2 ADD PUSH0 PUSH2 0x100 EXP DUP2 SLOAD DUP2 PUSH1 0xFF MUL NOT AND SWAP1 DUP4 ISZERO ISZERO MUL OR SWAP1 SSTORE POP PUSH32 0x15ED165A284872EA7017F03DF402A0CADFBFAB588320FFAF83F160C2F82781C7 DUP3 PUSH1 0x40 MLOAD PUSH2 0x783 SWAP2 SWAP1 PUSH2 0xA19 JUMP JUMPDEST PUSH1 0x40 MLOAD DUP1 SWAP2 SUB SWAP1 LOG1 POP POP JUMP JUMPDEST PUSH0 PUSH1 0x3 DUP1 SLOAD SWAP1 POP DUP3 LT PUSH2 0x7D7 JUMPI PUSH1 0x40 MLOAD PUSH32 0x8C379A000000000000000000000000000000000000000000000000000000000 DUP2 MSTORE PUSH1 0x4 ADD PUSH2 0x7CE SWAP1 PUSH2 0xBC5 JUMP JUMPDEST PUSH1 0x40 MLOAD DUP1 SWAP2 SUB SWAP1 REVERT JUMPDEST PUSH0 DUP1 PUSH0 SWAP1 POP JUMPDEST PUSH0 DUP1 SLOAD SWAP1 POP DUP2 LT ISZERO PUSH2 0x89D JUMPI PUSH1 0x2 PUSH0 DUP6 DUP2 MSTORE PUSH1 0x20 ADD SWAP1 DUP2 MSTORE PUSH1 0x20 ADD PUSH0 KECCAK256 PUSH0 DUP1 DUP4 DUP2 SLOAD DUP2 LT PUSH2 0x80E JUMPI PUSH2 0x80D PUSH2 0xC71 JUMP JUMPDEST JUMPDEST SWAP1 PUSH0 MSTORE PUSH1 0x20 PUSH0 KECCAK256 ADD PUSH0 SWAP1 SLOAD SWAP1 PUSH2 0x100 EXP SWAP1 DIV PUSH20 0xFFFFFFFFFFFFFFFFFFFFFFFFFFFFFFFFFFFFFFFF AND PUSH20 0xFFFFFFFFFFFFFFFFFFFFFFFFFFFFFFFFFFFFFFFF AND PUSH20 0xFFFFFFFFFFFFFFFFFFFFFFFFFFFFFFFFFFFFFFFF AND DUP2 MSTORE PUSH1 0x20 ADD SWAP1 DUP2 MSTORE PUSH1 0x20 ADD PUSH0 KECCAK256 PUSH0 SWAP1 SLOAD SWAP1 PUSH2 0x100 EXP SWAP1 DIV PUSH1 0xFF AND ISZERO PUSH2 0x890 JUMPI DUP2 DUP1 PUSH2 0x88C SWAP1 PUSH2 0xDDC JUMP JUMPDEST SWAP3 POP POP JUMPDEST DUP1 DUP1 PUSH1 0x1 ADD SWAP2 POP POP PUSH2 0x7DD JUMP JUMPDEST POP PUSH1 0x1 SLOAD DUP2 LT ISZERO SWAP2 POP POP SWAP2 SWAP1 POP JUMP JUMPDEST PUSH0 DUP1 REVERT JUMPDEST PUSH0 DUP2 SWAP1 POP SWAP2 SWAP1 POP JUMP JUMPDEST PUSH2 0x8C2 DUP2 PUSH2 0x8B0 JUMP JUMPDEST DUP2 EQ PUSH2 0x8CC JUMPI PUSH0 DUP1 REVERT JUMPDEST POP JUMP JUMPDEST PUSH0 DUP2 CALLDATALOAD SWAP1 POP PUSH2 0x8DD DUP2 PUSH2 0x8B9 JUMP JUMPDEST SWAP3 SWAP2 POP POP JUMP JUMPDEST PUSH0 PUSH1 0x20 DUP3 DUP5 SUB SLT ISZERO PUSH2 0x8F8 JUMPI PUSH2 0x8F7 PUSH2 0x8AC JUMP JUMPDEST JUMPDEST PUSH0 PUSH2 0x905 DUP5 DUP3 DUP6 ADD PUSH2 0x8CF JUMP JUMPDEST SWAP2 POP POP SWAP3 SWAP2 POP POP JUMP JUMPDEST PUSH0 PUSH20 0xFFFFFFFFFFFFFFFFFFFFFFFFFFFFFFFFFFFFFFFF DUP3 AND SWAP1 POP SWAP2 SWAP1 POP JUMP JUMPDEST PUSH0 PUSH2 0x937 DUP3 PUSH2 0x90E JUMP JUMPDEST SWAP1 POP SWAP2 SWAP1 POP JUMP JUMPDEST PUSH2 0x947 DUP2 PUSH2 0x92D JUMP JUMPDEST DUP3 MSTORE POP POP JUMP JUMPDEST PUSH0 PUSH1 0x20 DUP3 ADD SWAP1 POP PUSH2 0x960 PUSH0 DUP4 ADD DUP5 PUSH2 0x93E JUMP JUMPDEST SWAP3 SWAP2 POP POP JUMP JUMPDEST PUSH2 0x96F DUP2 PUSH2 0x92D JUMP JUMPDEST DUP2 EQ PUSH2 0x979 JUMPI PUSH0 DUP1 REVERT JUMPDEST POP JUMP JUMPDEST PUSH0 DUP2 CALLDATALOAD SWAP1 POP PUSH2 0x98A DUP2 PUSH2 0x966 JUMP JUMPDEST SWAP3 SWAP2 POP POP JUMP JUMPDEST PUSH0 PUSH1 0x20 DUP3 DUP5 SUB SLT ISZERO PUSH2 0x9A5 JUMPI PUSH2 0x9A4 PUSH2 0x8AC JUMP JUMPDEST JUMPDEST PUSH0 PUSH2 0x9B2 DUP5 DUP3 DUP6 ADD PUSH2 0x97C JUMP JUMPDEST SWAP2 POP POP SWAP3 SWAP2 POP POP JUMP JUMPDEST PUSH2 0x9C4 DUP2 PUSH2 0x8B0 JUMP JUMPDEST DUP3 MSTORE POP POP JUMP JUMPDEST PUSH0 DUP2 ISZERO ISZERO SWAP1 POP SWAP2 SWAP1 POP JUMP JUMPDEST PUSH2 0x9DE DUP2 PUSH2 0x9CA JUMP JUMPDEST DUP3 MSTORE POP POP JUMP JUMPDEST PUSH0 PUSH1 0x60 DUP3 ADD SWAP1 POP PUSH2 0x9F7 PUSH0 DUP4 ADD DUP7 PUSH2 0x93E JUMP JUMPDEST PUSH2 0xA04 PUSH1 0x20 DUP4 ADD DUP6 PUSH2 0x9BB JUMP JUMPDEST PUSH2 0xA11 PUSH1 0x40 DUP4 ADD DUP5 PUSH2 0x9D5 JUMP JUMPDEST SWAP5 SWAP4 POP POP POP POP JUMP JUMPDEST PUSH0 PUSH1 0x20 DUP3 ADD SWAP1 POP PUSH2 0xA2C PUSH0 DUP4 ADD DUP5 PUSH2 0x9BB JUMP JUMPDEST SWAP3 SWAP2 POP POP JUMP JUMPDEST PUSH0 DUP3 DUP3 MSTORE PUSH1 0x20 DUP3 ADD SWAP1 POP SWAP3 SWAP2 POP POP JUMP JUMPDEST PUSH32 0x496E76616C696420526563656976657227732041646472657373000000000000 PUSH0 DUP3 ADD MSTORE POP JUMP JUMPDEST PUSH0 PUSH2 0xA76 PUSH1 0x1A DUP4 PUSH2 0xA32 JUMP JUMPDEST SWAP2 POP PUSH2 0xA81 DUP3 PUSH2 0xA42 JUMP JUMPDEST PUSH1 0x20 DUP3 ADD SWAP1 POP SWAP2 SWAP1 POP JUMP JUMPDEST PUSH0 PUSH1 0x20 DUP3 ADD SWAP1 POP DUP2 DUP2 SUB PUSH0 DUP4 ADD MSTORE PUSH2 0xAA3 DUP2 PUSH2 0xA6A JUMP JUMPDEST SWAP1 POP SWAP2 SWAP1 POP JUMP JUMPDEST PUSH32 0x205472616E7366657220616D6F756E74206D7573742062652067726561746572 PUSH0 DUP3 ADD MSTORE PUSH32 0x207468616E203000000000000000000000000000000000000000000000000000 PUSH1 0x20 DUP3 ADD MSTORE POP JUMP JUMPDEST PUSH0 PUSH2 0xB04 PUSH1 0x27 DUP4 PUSH2 0xA32 JUMP JUMPDEST SWAP2 POP PUSH2 0xB0F DUP3 PUSH2 0xAAA JUMP JUMPDEST PUSH1 0x40 DUP3 ADD SWAP1 POP SWAP2 SWAP1 POP JUMP JUMPDEST PUSH0 PUSH1 0x20 DUP3 ADD SWAP1 POP DUP2 DUP2 SUB PUSH0 DUP4 ADD MSTORE PUSH2 0xB31 DUP2 PUSH2 0xAF8 JUMP JUMPDEST SWAP1 POP SWAP2 SWAP1 POP JUMP JUMPDEST PUSH0 PUSH1 0x80 DUP3 ADD SWAP1 POP PUSH2 0xB4B PUSH0 DUP4 ADD DUP8 PUSH2 0x9BB JUMP JUMPDEST PUSH2 0xB58 PUSH1 0x20 DUP4 ADD DUP7 PUSH2 0x93E JUMP JUMPDEST PUSH2 0xB65 PUSH1 0x40 DUP4 ADD DUP6 PUSH2 0x93E JUMP JUMPDEST PUSH2 0xB72 PUSH1 0x60 DUP4 ADD DUP5 PUSH2 0x9BB JUMP JUMPDEST SWAP6 SWAP5 POP POP POP POP POP JUMP JUMPDEST PUSH32 0x496E76616C6964207472616E73616374696F6E20496400000000000000000000 PUSH0 DUP3 ADD MSTORE POP JUMP JUMPDEST PUSH0 PUSH2 0xBAF PUSH1 0x16 DUP4 PUSH2 0xA32 JUMP JUMPDEST SWAP2 POP PUSH2 0xBBA DUP3 PUSH2 0xB7B JUMP JUMPDEST PUSH1 0x20 DUP3 ADD SWAP1 POP SWAP2 SWAP1 POP JUMP JUMPDEST PUSH0 PUSH1 0x20 DUP3 ADD SWAP1 POP DUP2 DUP2 SUB PUSH0 DUP4 ADD MSTORE PUSH2 0xBDC DUP2 PUSH2 0xBA3 JUMP JUMPDEST SWAP1 POP SWAP2 SWAP1 POP JUMP JUMPDEST PUSH32 0x7472616E73616374696F6E20697320616C726561647920636F6E6669726D6564 PUSH0 DUP3 ADD MSTORE PUSH32 0x20627920746865204F776E657200000000000000000000000000000000000000 PUSH1 0x20 DUP3 ADD MSTORE POP JUMP JUMPDEST PUSH0 PUSH2 0xC3D PUSH1 0x2D DUP4 PUSH2 0xA32 JUMP JUMPDEST SWAP2 POP PUSH2 0xC48 DUP3 PUSH2 0xBE3 JUMP JUMPDEST PUSH1 0x40 DUP3 ADD SWAP1 POP SWAP2 SWAP1 POP JUMP JUMPDEST PUSH0 PUSH1 0x20 DUP3 ADD SWAP1 POP DUP2 DUP2 SUB PUSH0 DUP4 ADD MSTORE PUSH2 0xC6A DUP2 PUSH2 0xC31 JUMP JUMPDEST SWAP1 POP SWAP2 SWAP1 POP JUMP JUMPDEST PUSH32 0x4E487B7100000000000000000000000000000000000000000000000000000000 PUSH0 MSTORE PUSH1 0x32 PUSH1 0x4 MSTORE PUSH1 0x24 PUSH0 REVERT JUMPDEST PUSH32 0x5472616E73616374696F6E20697320616C726561647920657865637574656400 PUSH0 DUP3 ADD MSTORE POP JUMP JUMPDEST PUSH0 PUSH2 0xCD2 PUSH1 0x1F DUP4 PUSH2 0xA32 JUMP JUMPDEST SWAP2 POP PUSH2 0xCDD DUP3 PUSH2 0xC9E JUMP JUMPDEST PUSH1 0x20 DUP3 ADD SWAP1 POP SWAP2 SWAP1 POP JUMP JUMPDEST PUSH0 PUSH1 0x20 DUP3 ADD SWAP1 POP DUP2 DUP2 SUB PUSH0 DUP4 ADD MSTORE PUSH2 0xCFF DUP2 PUSH2 0xCC6 JUMP JUMPDEST SWAP1 POP SWAP2 SWAP1 POP JUMP JUMPDEST PUSH0 DUP2 SWAP1 POP SWAP3 SWAP2 POP POP JUMP JUMPDEST POP JUMP JUMPDEST PUSH0 PUSH2 0xD1E PUSH0 DUP4 PUSH2 0xD06 JUMP JUMPDEST SWAP2 POP PUSH2 0xD29 DUP3 PUSH2 0xD10 JUMP JUMPDEST PUSH0 DUP3 ADD SWAP1 POP SWAP2 SWAP1 POP JUMP JUMPDEST PUSH0 PUSH2 0xD3D DUP3 PUSH2 0xD13 JUMP JUMPDEST SWAP2 POP DUP2 SWAP1 POP SWAP2 SWAP1 POP JUMP JUMPDEST PUSH32 0x5472616E73616374696F6E20457865637574696F6E206661696C656400000000 PUSH0 DUP3 ADD MSTORE POP JUMP JUMPDEST PUSH0 PUSH2 0xD7B PUSH1 0x1C DUP4 PUSH2 0xA32 JUMP JUMPDEST SWAP2 POP PUSH2 0xD86 DUP3 PUSH2 0xD47 JUMP JUMPDEST PUSH1 0x20 DUP3 ADD SWAP1 POP SWAP2 SWAP1 POP JUMP JUMPDEST PUSH0 PUSH1 0x20 DUP3 ADD SWAP1 POP DUP2 DUP2 SUB PUSH0 DUP4 ADD MSTORE PUSH2 0xDA8 DUP2 PUSH2 0xD6F JUMP JUMPDEST SWAP1 POP SWAP2 SWAP1 POP JUMP JUMPDEST PUSH32 0x4E487B7100000000000000000000000000000000000000000000000000000000 PUSH0 MSTORE PUSH1 0x11 PUSH1 0x4 MSTORE PUSH1 0x24 PUSH0 REVERT JUMPDEST PUSH0 PUSH2 0xDE6 DUP3 PUSH2 0x8B0 JUMP JUMPDEST SWAP2 POP PUSH32 0xFFFFFFFFFFFFFFFFFFFFFFFFFFFFFFFFFFFFFFFFFFFFFFFFFFFFFFFFFFFFFFFF DUP3 SUB PUSH2 0xE18 JUMPI PUSH2 0xE17 PUSH2 0xDAF JUMP JUMPDEST JUMPDEST PUSH1 0x1 DUP3 ADD SWAP1 POP SWAP2 SWAP1 POP JUMP INVALID LOG2 PUSH5 0x6970667358 0x22 SLT KECCAK256 LOG0 DUP2 0xC2 CALLVALUE EXTCODEHASH 0x2D BLOBHASH 0xCC DUP7 0xD7 0xDB SWAP2 SWAP9 0xDE 0xBB SELFDESTRUCT 0xE3 0xED CODECOPY INVALID SMOD BASEFEE PUSH17 0x67B56FE59DC9B41C0B64736F6C63430008 XOR STOP CALLER "
				},
				"gasEstimates": {
					"creation": {
						"codeDepositCost": "734600",
						"executionCost": "infinite",
						"totalCost": "infinite"
					},
					"external": {
						"confirmTransaction(uint256)": "infinite",
						"executeTransaction(uint256)": "infinite",
						"numConfirmationRequired()": "2469",
						"owners(uint256)": "4921",
						"submitTransaction(address)": "infinite",
						"transactions(uint256)": "infinite"
					},
					"internal": {
						"isTransactionConfirmed(uint256)": "infinite"
					}
				},
				"methodIdentifiers": {
					"confirmTransaction(uint256)": "c01a8c84",
					"executeTransaction(uint256)": "ee22610b",
					"numConfirmationRequired()": "9b6a34d3",
					"owners(uint256)": "025e7c27",
					"submitTransaction(address)": "66d651db",
					"transactions(uint256)": "9ace38c2"
				}
			},
			"storageLayout": {
				"storage": [
					{
						"astId": 4,
						"contract": "MyProjects/MultiSig.sol:MultiSig",
						"label": "owners",
						"offset": 0,
						"slot": "0",
						"type": "t_array(t_address)dyn_storage"
					},
					{
						"astId": 6,
						"contract": "MyProjects/MultiSig.sol:MultiSig",
						"label": "numConfirmationRequired",
						"offset": 0,
						"slot": "1",
						"type": "t_uint256"
					},
					{
						"astId": 19,
						"contract": "MyProjects/MultiSig.sol:MultiSig",
						"label": "isConfirmed",
						"offset": 0,
						"slot": "2",
						"type": "t_mapping(t_uint256,t_mapping(t_address,t_bool))"
					},
					{
						"astId": 23,
						"contract": "MyProjects/MultiSig.sol:MultiSig",
						"label": "transactions",
						"offset": 0,
						"slot": "3",
						"type": "t_array(t_struct(Transaction)13_storage)dyn_storage"
					}
				],
				"types": {
					"t_address": {
						"encoding": "inplace",
						"label": "address",
						"numberOfBytes": "20"
					},
					"t_array(t_address)dyn_storage": {
						"base": "t_address",
						"encoding": "dynamic_array",
						"label": "address[]",
						"numberOfBytes": "32"
					},
					"t_array(t_struct(Transaction)13_storage)dyn_storage": {
						"base": "t_struct(Transaction)13_storage",
						"encoding": "dynamic_array",
						"label": "struct MultiSig.Transaction[]",
						"numberOfBytes": "32"
					},
					"t_bool": {
						"encoding": "inplace",
						"label": "bool",
						"numberOfBytes": "1"
					},
					"t_mapping(t_address,t_bool)": {
						"encoding": "mapping",
						"key": "t_address",
						"label": "mapping(address => bool)",
						"numberOfBytes": "32",
						"value": "t_bool"
					},
					"t_mapping(t_uint256,t_mapping(t_address,t_bool))": {
						"encoding": "mapping",
						"key": "t_uint256",
						"label": "mapping(uint256 => mapping(address => bool))",
						"numberOfBytes": "32",
						"value": "t_mapping(t_address,t_bool)"
					},
					"t_struct(Transaction)13_storage": {
						"encoding": "inplace",
						"label": "struct MultiSig.Transaction",
						"members": [
							{
								"astId": 8,
								"contract": "MyProjects/MultiSig.sol:MultiSig",
								"label": "to",
								"offset": 0,
								"slot": "0",
								"type": "t_address"
							},
							{
								"astId": 10,
								"contract": "MyProjects/MultiSig.sol:MultiSig",
								"label": "value",
								"offset": 0,
								"slot": "1",
								"type": "t_uint256"
							},
							{
								"astId": 12,
								"contract": "MyProjects/MultiSig.sol:MultiSig",
								"label": "executed",
								"offset": 0,
								"slot": "2",
								"type": "t_bool"
							}
						],
						"numberOfBytes": "96"
					},
					"t_uint256": {
						"encoding": "inplace",
						"label": "uint256",
						"numberOfBytes": "32"
					}
				}
			},
			"userdoc": {
				"kind": "user",
				"methods": {},
				"version": 1
			}
		}
	}
}